:100000000C94CD000C94964F0C94C74F0C94F84F61
:100010000C9429500C945A500C948B500C94BC5056
:100020000C94ED500C94F7000C94F7000C94F7002E
:100030000C942D040C94F7000C94F7000C94DD0242
:100040000C94F7000C94F7000C94F7000C94F70054
:100050000C94F7000C94F7000C94F7000C94B80281
:100060000C94F7000C94EC530C94F7000C94F700EC
:100070000C94F7000C94F7000C94F7000C94F70024
:100080000C94F7000C94F7000C94F7000C94F70014
:100090000C942D540C94F7000C94F7000C9481569A
:1000A0000C94F7000C94F7000C94F7000C94F700F4
:1000B0000C94F7000C94F7000C94F7000C94F700E4
:1000C0000C94F7000C94F7000C94F70000212427FF
:1000D0002A2D3033002225282B2E313400202326D0
:1000E000292C2F3205050505030303030101010433
:1000F00004030606060606060606010405010501B8
:1001000003020202020202010202050504040304C2
:1001100004010304070707010208101020408004AF
:1001200008102040020204081020408001028020B4
:100130004004200101020408102001408040800199
:1001400002080408800410040201000008090000ED
:10015000000000000000000000000000000000009F
:10016000000000000000000000000000000000008F
:100170000000000000000000000000000000640417
:100180003B062107D907EF0CAE101B156B4BD84B64
:10019000834C434D284E2258235811241FBECFEFC5
:1001A000D1E2DEBFCDBF19E0A0E0B2E0E8E8FDEBB0
:1001B00000E00BBF02C007900D92AC31B107D9F738
:1001C00012E1ACE1B9E001C01D92AE39B107E1F72F
:1001D00011E0CAE9D1E004C02297FE010E94BF5A93
:1001E000CE37D107C9F70E94B1020C94C25E0C94BD
:1001F00000000F931F930FED1BE0C80160E078E053
:1002000040E00E94710F60932E0970932F09809334
:1002100030099093310968EE73E080E090E00E942D
:100220001A03C80160E078E041E00E94710F60931A
:1002300032097093330980933409909335091F91E3
:100240000F9108958FED9BE061E040E058E00E943F
:10025000C60B08958FED9BE060E040E058E00E94FF
:10026000C60B64E670E080E090E00E941A030895F7
:100270006F927F928F929F92AF92BF92CF92DF92B6
:10028000EF92FF920F931F9323E5622E2CE0722EC4
:10029000C30161E00E94314C9CE5892E9CE0992EBF
:1002A000C4010E940E4B64EF71E080E090E00E9478
:1002B0001A0360912E0970912F0980913009909155
:1002C000310920E030E048EC52E40E94EA597B0119
:1002D0008C0160932E0970932F09809330099093BD
:1002E00031096091320970913309809134099091FC
:1002F000350920E030E048EC52E40E94EA595B0105
:100300006C016093320970933309809334099093A0
:100310003509C801B7010E9403597B018C01609324
:100320004709F0924809C601B5010E94035970932C
:100330004A096093490981E5C82E89E0D82EC60193
:100340006E2D0E944106C601609149090E94410636
:100350008DB79EB70A970FB6F8949EBF0FBE8DBF9C
:10036000EDB7FEB7319606E319E0ADB7BEB712960A
:100370001C930E9311978DE192E093838283809179
:100380004709909148099583848380914909909108
:100390004A099783868380914B09808711860E9442
:1003A000EB5B8DB79EB70A960FB6F8949EBF0FBE53
:1003B0008DBF81E090E064EB70E00E94C35AFC01C5
:1003C00090934D0980934C091086E458FF4F82E5C5
:1003D000808312921092CF0DC40163E179E00E94F4
:1003E0000A3BC40162E00E944C4D60914C0970913F
:1003F0004D09C4014CE252E020E00E94CC486091DB
:100400004C0970914D09C40141E352E0980100E0AC
:10041000EE240E94F84960914C0970914D09C40185
:100420000E94744680914C0990914D090E948C5B0A
:1004300010924D0910924C0964EF71E080E090E059
:100440000E941A03C4010E94ED4AC30163E00E94A6
:10045000314C1F910F91FF90EF90DF90CF90BF90A4
:10046000AF909F908F907F906F9008950E942A0187
:100470000E94F9000E9422018FE499E00E94000589
:1004800080934B090E94380108950F938FE499E0FF
:1004900066E372E040E021E00FE10E9403068091F4
:1004A0001C0990911D0984FF1DC083E599E068EE49
:1004B00073E00E94700783E599E068EE73E00E94A4
:1004C000700783E599E068EE73E00E9470070E9470
:1004D000360280911C0990911D098F7E90931D0911
:1004E00080931C098FE499E00E9473050F91089591
:1004F0000F931F9383E99AE061E00E94DE070FE407
:1005000019E0C80160E041E00E946504C80161E0B3
:1005100041E00E946504C8010E948C04C80140E0CB
:1005200050E060E470E40E9499048FED9BE060E08D
:100530000E945A0C8CE59CE061E041E021E00E94C1
:10054000224E01EE1BE0C8010E941815C80162E4AA
:1005500072E00E949312C8010E94EF141F910F9144
:1005600008950E9470030E9478020E944502FDCF08
:100570001F920F920FB60F9211248F939F93AF93F8
:10058000BF938091121090911310A0911410B0910C
:1005900015100196A11DB11D809312109093131098
:1005A000A0931410B0931510BF91AF919F918F91AC
:1005B0000F900FBE0F901F9018951F920F920FB6BD
:1005C0000F9211248F939F93AF93BF938091161036
:1005D00090911710A0911810B09119100196A11DBB
:1005E000B11D8093161090931710A0931810B0931C
:1005F0001910BF91AF919F918F910F900FBE0F90E7
:100600001F90189560911210709113108091141022
:100610009091151027E0660F771F881F991F2A9564
:10062000D1F72EE330E040E050E00E94805ACA014A
:10063000B9010895AF92BF92CF92DF92EF92FF92ED
:100640000F931F935B016C01609112107091131056
:10065000809114109091151047E0660F771F881F46
:10066000991F4A95D1F72EE330E040E050E00E9418
:10067000805A79018A016091121070911310809153
:1006800014109091151037E0660F771F881F991F7F
:100690003A95D1F72EE330E040E050E00E94805AD6
:1006A0002E193F09400B510B2A153B054C055D05E2
:1006B00010F31F910F91FF90EF90DF90CF90BF90BC
:1006C000AF900895019759F0019749F0FC01EE0FA2
:1006D000FF1F31978FB7F8943197F1F78FBF0895C7
:1006E000789484B7877F84BF1092121010921310F1
:1006F000109214101092151084B5826084BD84B5D8
:10070000816084BD85B5826085BD85B5816085BD0C
:10071000EEE6F0E0808181608083E1E8F0E08081B6
:1007200082608083808181608083E0E8F0E0808166
:1007300081608083E1EBF0E0808184608083E1E987
:10074000F0E0808184608083E0EBF0E08081816074
:100750008083E0E9F0E0808181608083E4E6F0E07E
:1007600080818E7F8083ECE7F0E080818F778083CB
:10077000808180648083EAE7F0E080818460808308
:100780008081826080838081806880831092C10034
:100790001092C900089590914E09982B90934E099C
:1007A00080FF32C0809164008E7F809364008091CE
:1007B0007C008F7780937C0080917C0080648093A4
:1007C0007C0080917A00846080937A0080917A0026
:1007D000826080937A0080917A00806880937A00AA
:1007E000809164008F7780936400809164008B7F98
:1007F00080936400809164008D7F80936400809179
:1008000065008E7F809365000895282F2095909134
:100810004E09922390934E0980FF1EC080917A006A
:100820008F7780937A008091640081608093640068
:10083000809164008068809364008091640084608B
:100840008093640080916400826080936400809152
:10085000650081608093650008951F920F920FB626
:100860000F920BB60F9211242F933F934F935F93E8
:100870006F937F938F939F93AF93BF93EF93FF9368
:10088000F89481E080931509E0E6F0E080818068CB
:10089000808380818F7B808383E060E00E94684E4C
:1008A0007894FF91EF91BF91AF919F918F917F913C
:1008B0006F915F914F913F912F910F900BBE0F90D1
:1008C0000FBE0F901F90189508950F931F93062F3A
:1008D000142F8AE161E00E944A4E88E161E00E94A3
:1008E0004A4E002319F00130A1F408C0112311F47D
:1008F0008AE107C0113069F48AE108C0112319F4B4
:1009000088E161E004C0113021F488E160E00E94D8
:10091000684E1F910F91089589E261E00E944A4E4E
:1009200088E261E00E944A4E82E59CE00E946C4BA6
:100930000895EF92FF920F931F93CF93DF93EC01F3
:100940007A018B018091520C882321F482E59CE08E
:100950000E94C14B68EC70E080E090E00E941A03B6
:1009600082E59CE06DE270E00E944A4B82E59CE0EB
:1009700061E170E00E949A4BC801B70123E333E3C1
:1009800043E95FE30E94325820E030E04BEE53E44D
:100990000E94EA5923E333E343E95FE30E949B5853
:1009A00020E030E849E454E40E9432589B01AC0155
:1009B00060E070E088E493E40E9432580E94085995
:1009C0009B01AC018FEF289FC001112468EC70E0FF
:1009D0000E946D5A82E59CE00E94764B82E59CE085
:1009E0000E949D4B8091520C882319F0CE010E94E9
:1009F0008C04DF91CF911F910F91FF90EF9008959C
:100A0000EF92FF920F931F9389E161E00E944A4E9B
:100A100089E161E00E94684E80E00E942F4EAA2783
:100A200097FDA095BA2FBC01CD010E9436597B01DC
:100A30008C0120E030E040E054E40E949758882385
:100A400034F489E160E00E94684E10E046C0C801BD
:100A5000B70120E030EC42E254E40E94E659181657
:100A600034F489E160E00E94684E14E636C0C801A3
:100A7000B70120E030EC42E254E40E949758181687
:100A8000BCF0C801B70120E030EC47E054E40E941C
:100A9000E65918166CF4C801B70125E535E545E5BA
:100AA0005FE30E94EA5920E030E04DED53E40CC0D2
:100AB000C801B70120E030E040EA5EE30E94EA5955
:100AC00020E030E040E253E40E9432580E9408598E
:100AD000162F89E160E00E94684E812F1F910F91CF
:100AE000FF90EF90089580911C0990911D0982FF5D
:100AF00004C087E59CE00E94084D80911C099091FC
:100B00001D0980911C0990911D0984FF04C081EE8C
:100B10009BE00E94D31080911C0990911D0993FFC6
:100B200004C080E098E00E94645180911C0990917B
:100B30001D0980911C0990911D0908951F93162F7E
:100B400080917A008F7780937A0081E261E00E9441
:100B50004A4E81E260E00E94684E8BE161E00E94B3
:100B60004A4E8BE160E00E94684E10FF10C08AE19F
:100B700061E00E944A4E8AE160E00E94684E88E18E
:100B800061E00E944A4E88E160E00E94684E11FFD9
:100B900009C083E59CE00E946F4C83E59CE063E024
:100BA0000E94314C12FF13C081E00E9421558FE258
:100BB00061E00E944A4E8FE260E00E94684E83E24C
:100BC00061E00E944A4E83E260E00E94684E14FF9A
:100BD0000EC08091580C80FD0AC081FD08C080E3E2
:100BE00061E00E944A4E80E360E00E94684E13FF7D
:100BF00008C089E161E00E944A4E89E160E00E94FC
:100C0000684E1F910895EF92FF920F937C0181EE41
:100C10009BE00E94231481EE9BE00E94E214C70136
:100C2000602F0E949E0583B7817F846083BF83B756
:100C3000816083BF83B7816083BF889583B78E7FD0
:100C400083BF83B78E7F83BF80917A008068809353
:100C50007A0081EE9BE00E94181581EE9BE00E94D5
:100C6000D31004FF04C081EE9BE00E94EF140F91AB
:100C7000FF90EF9008951092510981E080935209FE
:100C800008951F93162F8DE00E946E548AE0612F05
:100C90000E946E541F910895FB0120E030E002C0D5
:100CA0002F5F3F4F81918823D9F7C9010895FB0138
:100CB0009081892F80538A3038F4292F332727FDDC
:100CC0003095205330400DC0892F8154863018F064
:100CD00020E030E007C0292F332727FD3095275328
:100CE000304031966081862F80538A3030F47727E8
:100CF00067FD7095605370400CC0862F815486301C
:100D000018F060E070E005C0772767FD70956753C5
:100D10007040A4E0220F331FAA95E1F7862F820FBF
:100D200008956833A1F1693380F4643341F1653388
:100D300038F4623301F1633300F56133D1F417C045
:100D4000663309F1673308F51CC0633441F164343C
:100D500038F4613401F1623400F5693351F419C09B
:100D6000653409F16534E8F0663419F41EC081E099
:100D70001DC080E01BC082E019C083E017C084E082
:100D800015C085E013C086E011C087E00FC088E081
:100D90000DC089E00BC08AE009C08BE007C08CE081
:100DA00005C08DE003C08EE001C08FE04733A1F1A4
:100DB000483380F4433341F1443338F44133F1F0A4
:100DC000423300F54033E1F51BC0453309F14633AA
:100DD00008F51CC0423441F1433438F4493301F181
:100DE0004933E0F0413461F51DC0443409F1443425
:100DF000E8F04534F9F04634F9F0089591E01DC06B
:100E000090E01BC092E019C093E017C094E015C0B9
:100E100095E013C096E011C097E00FC098E00DC0B8
:100E200099E00BC09AE009C09BE007C09CE005C0B8
:100E30009DE003C09EE001C09FE08295807F890F06
:100E4000089508958FE261E00E944A4E84E261E0D5
:100E50000E944A4E85E261E00E944A4E8FE261E0C4
:100E60000E94684E84E261E00E94684E85E261E083
:100E70000E94684E08950F931F93162F042F8FE240
:100E800061E00E944A4E84E261E00E944A4E85E29F
:100E900061E00E944A4E8FE261E00E94684E84E267
:100EA000612F0E94684E85E2602F0E94684E1F915C
:100EB0000F9108950F931F93162F042F862F61E033
:100EC0000E944A4E013019F4812F61E004C00023D2
:100ED00021F4812F60E00E94684E1F910F910895C8
:100EE000CF92DF92EF92FF920F931F936C017B01E1
:100EF0006CE041E00E945A07C6016DE041E00E94AB
:100F00005A0700E010E0C801B7010E941A03C601A9
:100F10006CE040E00E945A07C6016DE040E00E948C
:100F20005A07C801B7010E941A031F910F91FF9041
:100F3000EF90DF90CF900895FC0180EC92E1A0E06B
:100F4000B0E080839183A283B38381E08483E755FB
:100F5000FF4F22E02083E95AF0401782168280E892
:100F600090E0918780871286238787E592E095AB92
:100F700084AB8DE592E097AB86AB84E692E091AFCF
:100F800080AF88E692E093AF82AF8BE692E095AFB8
:100F900084AF8DE692E097AF86AFE05CFF4F87E7C6
:100FA00092E08193919382E892E0819391931082F1
:100FB000089583E99AE00E949C0708950F931F9378
:100FC0008C01FC01628783E261E00E944A4EF801D5
:100FD0008285882319F0813041F403C083E261E007
:100FE00002C083E260E00E94684E1F910F91089555
:100FF000AF92BF92CF92DF92EF92FF920F931F9327
:101000009B014115510531F14130510529F0E0E0D6
:1010100070E080E060E049C0B901882777FD8095E5
:10102000982F0E9436597B018C012DEB32E546E169
:101030005DE30E94EA5925EC3EEF42E050E40E9455
:1010400032585B016C01C801B70126EF34E246ED6E
:1010500055EB1DC0B901882777FD8095982F0E9418
:1010600036597B018C012DEB32E546E15FE30E94AE
:10107000EA5925EC3EEF42E050E40E9432585B0111
:101080006C01C801B7012BE335E246ED59EB0E9434
:10109000EA59A80197010E94EA599B01AC01C601D7
:1010A000B5010E943358E62F692F2E2F372F482F76
:1010B000562FB901CA011F910F91FF90EF90DF9059
:1010C000CF90BF90AF900895AF92BF92CF92DF9232
:1010D000EF92FF920F931F93FB01142F8081282F13
:1010E00030E066E0359527956A95E1F751E0C52E29
:1010F000D12CC222D32290E0A0E0B0E08F73907098
:10110000A070B0704427582F692F7A2F8181480F23
:10111000511D611D711D92E0440F551F661F771F01
:101120009A95D1F782818295869586958370480F2E
:10113000511D611D711D359527952130310579F4BB
:1011400081E0C816D104E1F40F2EF0E0AF2EF0E0FC
:10115000BF2EF0E0CF2EF0E4DF2EF02D23C0CD28FF
:1011600059F40F2EF0E0AF2EF0E0BF2EF0E0CF2EBE
:10117000F0ECDF2EF02D16C04F5F5F4F60407040E7
:10118000CB01BA010E94365920E030E040EC5FE329
:101190000E94EA5920E03FEF4FE757E40E949B5836
:1011A0005B016C01113009F04FC0C601B50120E0B0
:1011B00030E44BE754E40E94EA5920E030E44BEF7E
:1011C00054E40E94EA592AE63FE64BE45AE40E94BE
:1011D00033587B018C01C601B50120E030E44BEFB0
:1011E00054E40E94EA599B01AC0160E078E48FE48A
:1011F00095E40E9432589B01AC01C801B7010E94DE
:101200009B5828E431E64AE754E40E9432582EEA1B
:101210003FEF48EA54E40E949B5828EB3EEC4AEB2F
:1012200054E40E94EA592FE832E049E754E40E946E
:10123000335820E030E04AE754E40E94325826E96F
:1012400031E24AE750E40EC01123A1F4C601B50112
:1012500020E030EE4BE256E40E94EA5920E030E014
:101260004AE754E40E949B589B01AC01832F942FC2
:10127000752F00C0262F382F492F572FB901CA01CB
:101280001F910F91FF90EF90DF90CF90BF90AF90A4
:101290000895882777FD8095982F0E94365920E081
:1012A00030E44EE455E40E94EA5920E030EC4FE788
:1012B00054E40E949B582AE939E949E15FE30E941E
:1012C0009B5820E030E047E853E40E94335820E088
:1012D00030E44CE955E40E949B582CE53FE842EC91
:1012E0005DE30E94335820EE3DE240E15CE30E9462
:1012F0009B580895EF92FF920F931F93CF93DF9324
:10130000EC017A018B01CB01BA0120E030E040E82A
:101310005EE30E94975888231CF480E190E04EC160
:10132000C801B70120E030E040E85EE30E94E659E2
:1013300088236CF0C801B70129E23CE54FE85EE381
:101340000E94975888231CF484E090E037C1C801BC
:10135000B70129E23CE54FE85EE30E94E6598823A5
:101360006CF0C801B70123E333E343EB5EE30E9473
:10137000975888231CF488E090E020C1C801B70189
:1013800023E333E343EB5EE30E94E65988236CF0EA
:10139000C801B70120E030E040E05FE30E949758C9
:1013A00088231CF480E490E009C1C801B70120E063
:1013B00030E040E05FE30E94E65988236CF0C8010A
:1013C000B70126E636E646E25FE30E949758882397
:1013D0001CF480E290E0F2C0C801B70126E636E6D0
:1013E00046E25FE30E94E65988236CF0C801B7012A
:1013F0002AE939E949E55FE30E94975888231CF4FC
:1014000080E091E0DBC0C801B7012AE939E949E58C
:101410005FE30E94E65988236CF0C801B7012DEC08
:101420003CEC4CE85FE30E94975888231CF480E86A
:1014300090E0C4C0C801B7012DEC3CEC4CE85FE380
:101440000E94E65988236CF0C801B70127ED33EA02
:1014500040EB5FE30E94975888231CF481E090E002
:10146000ADC0C801B70127ED33EA40EB5FE30E944E
:10147000E65988236CF0C801B7012DEC3CEC4CEC2C
:101480005FE30E94975888231CF482E090E096C0A6
:10149000C801B7012DEC3CEC4CEC5FE30E94E6592F
:1014A00088236CF0C801B70128E431EE4AEF5FE30E
:1014B0000E94975888231CF480E094E07FC0C80104
:1014C000B70128E431EE4AEF5FE30E94E659882332
:1014D0006CF0C801B7012AE939E949E050E40E94FB
:1014E000975888231CF480E092E068C0C801B701D7
:1014F0002AE939E949E050E40E94E65988236CF072
:10150000C801B70126E636E646E150E40E94975846
:1015100088231CF480E090E451C0C801B70126E69E
:1015200036E646E150E40E94E65988236CF0C80193
:10153000B70126E636E646E250E40E949758882333
:101540001CF4198218823CC0C801B70126E636E6B1
:1015500046E250E40E94E65988236CF0C801B701C6
:1015600023E333E343E350E40E94975888231CF4B9
:1015700080E090E123C0C801B70123E333E343E3F4
:1015800050E40E94E65988236CF0C801B70126E6B2
:1015900036E646E450E40E94975888231CF480E025
:1015A00098E00CC0C801B70126E636E646E450E4F0
:1015B0000E94E659882324F080E090E29983888392
:1015C000DF91CF911F910F91FF90EF9008958827A1
:1015D00077FD8095982F0E94365920E030E44EE444
:1015E00055E40E94EA5920E030EC4FE754E40E94B1
:1015F0009B582AE939E949E15FE30E949B5820E0C2
:1016000030E048E454E40E94325820E030E048EFF3
:1016100051E40E949B580895882777FD8095982F64
:101620000E94365920E030E44EE455E40E94EA5925
:1016300020E030EC4FE754E40E949B5820E030E07B
:101640004AEF53E40E94325820E030E040E251E497
:101650000E949B580895AF92BF92CF92DF92EF9273
:10166000FF920F931F93CF93DF930E9402035B01BE
:101670006C01EE24FF24C0E0D0E00EC088E00E94A0
:10168000B34E8C0121E0E216F10419F4009709F43D
:1016900021960E94020378010E9402036A197B09C5
:1016A0008C099D09695B7B408040904038F364E67B
:1016B00070E080E090E00E941A03CE01DF91CF91AC
:1016C0001F910F91FF90EF90DF90CF90BF90AF9060
:1016D0000895BF92CF92DF92EF92FF920F931F93E4
:1016E000CF93DF93162F8FE060E00E944A4E81E196
:1016F00060E00E944A4E83E160E00E944A4E8AE028
:1017000060E00E94684E143049F0183051F01230F9
:1017100019F4FFE0BF2E07C0BB2405C0E3E1BE2ED5
:1017200002C071E1B72E0E9402036B017C01C0E090
:10173000D0E000E010E08B2D0E94B34E219739F4E9
:10174000009729F40F5F1F4FC0E0D0E001C0EC010B
:1017500087E0003D18077CF30E9402036C197D09A5
:101760008E099F090E9434599B01AC0160E074E22C
:1017700084EF99E40E949B58DF91CF911F910F91C4
:10178000FF90EF90DF90CF90BF900895662309F00F
:1017900046C04034510509F43FC041345105C8F4F6
:1017A00042305105A9F14330510540F4411551052E
:1017B00089F14130510509F07CC02CC048305105F9
:1017C00039F14032510541F14430510509F071C001
:1017D0001FC082E040305807F9F082E041305807DE
:1017E00040F440385105C1F04050514009F061C00B
:1017F00013C088E04030580779F080E14030580746
:1018000029F04050544009F054C006C084E005C09F
:1018100082E003C08EE001C087E061E043C0613038
:1018200009F047C040345105D9F141345105B8F4AD
:101830004230510589F14330510538F441155105C5
:1018400069F141305105A9F529C04830510521F110
:101850004032510529F14430510559F51DC082E04F
:1018600040305807E9F082E04130580738F44038FA
:101870005105B1F040505140E1F412C088E04030D1
:10188000580799F080E14030580721F0405054400B
:1018900081F406C084E005C082E003C08EE001C090
:1018A00087E060E00E94684E089587E060E00E9453
:1018B000684E08951F93162F68EE73E080E090E065
:1018C0000E941A03112319F0113011F515C08AE195
:1018D00061E00E94684E88E161E00E94684E80915C
:1018E000F30B882331F481EE9BE061E041E00E943C
:1018F000BA1487E061E00AC08AE160E00E94684EA5
:1019000088E160E00E94684E87E060E00E94684ED7
:101910001F91089582E360E00E944A4E82E361E0F5
:101920000E94684E85E061E00E944A4E84E061E0DA
:101930000E944A4E86E061E00E944A4E87E061E0E4
:101940000E944A4E89E060E00E944A4E8AE061E0CF
:101950000E944A4E88E060E00E944A4E82E061E0C8
:101960000E944A4E8EE061E00E944A4E8AE161E0A8
:101970000E944A4E88E161E00E944A4E8FE060E09A
:101980000E944A4E81E160E00E944A4E83E160E09D
:101990000E944A4E85E060E00E94684E84E060E06C
:1019A0000E94684E86E060E00E94684E87E060E03A
:1019B0000E94684E8AE060E00E94684E82E060E02B
:1019C0000E94684E8EE060E00E94684E8AE160E00E
:1019D0000E94684E88E160E00E94684E08958FED95
:1019E0009BE00E948A0C0895CF92DF92FF920F93A2
:1019F0001F93CF93DF936C01F62E662319F403E057
:101A0000F02E05C081E0681711F415E0F12E86E094
:101A100061E00E944A4E85E061E00E944A4E86E005
:101A200061E00E94684E85E061E00E94684E81E0BE
:101A300090E00E94620386E060E00E94684E85E0CC
:101A400060E00E94684E81E090E00E94620385E0C1
:101A500061E00E94684E86E061E00E94684E81E08D
:101A600090E00E94620385E060E00E94684E86E09C
:101A700065E041E02F2D0E94E15785E061E00E9482
:101A8000684E86E060E00E944A4E86E00E94B34EB7
:101A90000197D9F385E060E00E94684E86E00E94DD
:101AA000B34E892BD9F386E00E94B34E0197D9F348
:101AB00000E010E0C0E0D0E085E061E00E94684E08
:101AC000000F111F86E00E94B34E080F191F85E01A
:101AD00060E00E94684E2196C830D10569F786E023
:101AE0000E94B34E892BD9F386E061E00E944A4EF2
:101AF00086E060E00E94684E81E090E00E94620310
:101B000085E061E00E94684E80E991E00E946203F6
:101B100085E060E00E94684E86E060E00E944A4EE8
:101B2000C0E0D0E085E061E00E94684E000F111F28
:101B300086E00E94B34E080F191F85E060E00E9406
:101B4000684E2196C830D10569F786E061E00E94B1
:101B50004A4E86E061E00E94684E85E061E00E94A6
:101B6000684E80E991E00E94620385E060E00E9497
:101B7000684E86E060E00E94684E83E0F816A1F4AB
:101B8000B801882777FD8095982F0E9436592AE062
:101B900037ED43E25CE30E94EA592DEC3CEC4EE168
:101BA00052E40E9432580AC085E0F81639F4C601A2
:101BB000B80141E050E00E94F80700C0DF91CF91EA
:101BC0001F910F91FF90DF90CF9008950F931F9377
:101BD000DF93CF9300D0CDB7DEB78091520C88232E
:101BE00021F482E59CE00E94C14B19821A8264E6CE
:101BF00070E080E090E00E941A0362E370E080E011
:101C000090E00E941A0382E59CE064E170E042E00B
:101C100050E00E94BE4B8E010F5F1F4F07C082E550
:101C20009CE00E945A4BF80181938F0182E59CE071
:101C30000E94544B882399F78091520C882391F08D
:101C400080915B0C882371F48091F30B813051F00B
:101C50008FE499E00E948C0481EE9BE060E141E01A
:101C60000E94BA14298130E040E050E0542F432F05
:101C7000322F22278A81280F311D411D511DCA0193
:101C8000B901E3E0660F771F881F991FEA95D1F726
:101C9000620F731F841F951F6950704884409040E5
:101CA0000E94365920E03FEF4FE757E40E949B58CF
:101CB0000F900F90CF91DF911F910F910895EF92A8
:101CC000FF920F931F93DF93CF9300D00F92CDB766
:101CD000DEB77C01DE011196E6E1F9E083E00190D8
:101CE0000D928150E1F78091520C882321F482E516
:101CF0009CE00E94C14B64E670E080E090E00E94AE
:101D00001A0364E670E080E090E00E941A0364E643
:101D100070E080E090E00E941A0382E59CE066E1BA
:101D200070E00E944A4B82E59CE060EA0E94764B9C
:101D300082E59CE065E570E00E949A4B82E59CE0BC
:101D40000E949D4B6CE271E080E090E00E941A03DB
:101D500082E59CE066E170E043E050E00E94BE4B0B
:101D60008E010F5F1F4F07C082E59CE00E945A4B17
:101D7000F80181938F0182E59CE00E94544B8823F7
:101D800099F78091520C882391F080915B0C882305
:101D900071F48091F30B813051F08FE499E00E944F
:101DA0008C0481EE9BE060E141E00E94BA14C7011F
:101DB000BE016F5F7F4F41E00E9464080F900F905B
:101DC0000F90CF91DF911F910F91FF90EF900895A9
:101DD000EF92FF920F931F93DF93CF9300D00F9258
:101DE000CDB7DEB77C01DE011196E9E1F9E083E0D1
:101DF00001900D928150E1F78091520C882321F4DB
:101E000082E59CE00E94C14B64E670E080E090E0D7
:101E10000E941A0364E670E080E090E00E941A03DA
:101E200064E670E080E090E00E941A0382E59CE0A6
:101E300066E170E00E944A4B82E59CE061EA0E9404
:101E4000764B82E59CE065E570E00E949A4B82E566
:101E50009CE00E949D4B6CE271E080E090E00E946B
:101E60001A0382E59CE066E170E043E050E00E94E6
:101E7000BE4B8E010F5F1F4F07C082E59CE00E94A2
:101E80005A4BF80181938F0182E59CE00E94544BEC
:101E9000882399F78091520C882391F080915B0CF4
:101EA000882371F48091F30B813051F08FE499E035
:101EB0000E948C0481EE9BE060E141E00E94BA1434
:101EC000C701BE016F5F7F4F40E00E9464080F9022
:101ED0000F900F90CF91DF911F910F91FF90EF9096
:101EE0000895EF92FF920F931F93CF93DF93EC012E
:101EF0006032710509F48FC061327105E0F462301F
:101F0000710509F445C06330710548F46115710528
:101F100009F462C06130710509F0E3C041C0683066
:101F20007105E1F16031710509F4C6C064307105D5
:101F300009F0D7C02FC082E06030780709F498C05C
:101F400082E06130780770F46038710509F46AC086
:101F500081E06030780709F47FC06034710509F0D2
:101F6000C0C05CC088E06030780709F497C080E1A9
:101F70006030780729F06050744009F0B2C08AC020
:101F800083E00E942F4EBC01CE010E9449098CC003
:101F900062E001C064E00E94690B86C068E0FBCF8C
:101FA00087E00E942F4EA0E0B0E0BC01CD010E946E
:101FB000345923E333E343E550E40E94EA592AE924
:101FC00039E949E150E40E94EA592EE135E845EF4C
:101FD00051E40E949B5868C085E00E942F4EA0E00B
:101FE000B0E0BC01CD010E94345923E333E343E563
:101FF00050E40E94EA5920E030EC4FE754E40E949C
:102000009B589B01AC017B018A01CE01A901B8015B
:102010000E947A096AC00E94E80E46C0CE010E9462
:102020005F0E42C08AE061E00E94684E86E00E9436
:102030002F4EA0E0B0E0BC01CD010E94345923E353
:1020400033E343E550E40E94EA5920E030EC4FE7E7
:1020500054E40E949B5817C08AE061E00E94684ED9
:1020600084E00E942F4EBC01CE010E940C0B0BC0DD
:102070008AE061E00E94684E82E00E942F4EBC011F
:10208000CE010E94E70A7B018C018AE060E00E9499
:10209000684E2BC0CE010E94E60D06C0442339F4E1
:1020A000CE0160E00E94F40C7B018C011EC0413027
:1020B000C1F4CE0161E0F6CF0E942B0BA0E0B0E0AE
:1020C000BC01CD010E94345924E83DE04FE85EE3B5
:1020D0000E94EA5920E030E040EA51E40E94EA59C7
:1020E000E3CFEE24FF2400E010E0B701C801DF9148
:1020F000CF911F910F91FF90EF900895FC01138AEB
:10210000148A158A168A178A108E118E128E138ED3
:10211000148E158E168E178E10A211A212A280E0B8
:1021200090E0A0E0B0E083A394A3A5A3B6A3089594
:10213000262F862F6AE00E944D5A492F30E0C901B0
:10214000841B91096AE070E00E946D5AE4E0660F1A
:10215000771FEA95E1F7842F862B08950895DF9283
:10216000EF92FF920F931F938C01D62EA2E5EA2ED9
:10217000ACE0FA2EC70168E670E00E944A4BC70146
:102180006D2D0E94764B0D0D111DC701F801608168
:102190000E94764BC7010E949D4B1F910F91FF90AB
:1021A000EF90DF9008958091F00B8C7F8093F00B7F
:1021B00081EE9BE06FE00E94AF1008950F931F9394
:1021C0008C0180E190E00E941E51C8010E94D31052
:1021D0001F910F9108951F93CF93DF93EC01142F5C
:1021E000613009F08CC08E858D7F85608E87CE0131
:1021F0006EE00E94AF108F858C7F8F87CE016FE0DD
:102200000E94AF10133009F452C0143030F4113072
:1022100031F18F811230D8F50AC0153009F454C05D
:10222000153008F44EC0163009F0DDC0D2C08F77EB
:102230008F83CE0167E00E94AF1088858F778887F3
:10224000CE0168E00E94AF1089858F778987CE0123
:1022500069E00E94AF108A858F7780644CC08F81BF
:102260008F778F83CE0167E00E94AF1088858F77CC
:102270008887CE0168E00E94AF1089858F778987B3
:10228000CE0169E00E94AF108A858F7334C08F77CA
:102290008F83CE0167E00E94AF1088858F77888793
:1022A000CE0168E00E94AF1089858F771DC08F81B5
:1022B0008F778F83CE0167E00E94AF1088858F777C
:1022C0000CC08F818F7702C08F8180688F83CE0191
:1022D00067E00E94AF10888580688887CE0168E03B
:1022E0000E94AF10898580688987CE0169E00E94CD
:1022F000AF108A8580688A87CE016AE067C0623045
:1023000009F071C08E858E7F86608E87CE016EE06B
:102310000E94AF108F858C7F8F87CE016FE00E9467
:10232000AF10123099F1133030F4112361F01130F5
:1023300009F059C01AC01430B1F1143088F11530C9
:1023400009F051C046C08B858F778B87CE016BE03B
:102350000E94AF108C858F778C87CE016CE00E9435
:10236000AF108D858F7780642EC08B858F778B879C
:10237000CE016BE00E94AF108C858F778C87CE01E9
:102380006CE00E94AF108D858F731DC08B858F7799
:102390008B87CE016BE00E94AF108C858F770CC0CD
:1023A0008B858F7702C08B8580688B87CE016BE031
:1023B0000E94AF108C8580688C87CE016CE00E94F3
:1023C000AF108D8580688D87CE016DE00E94AF10C3
:1023D0000AC08E85887F8E87CE016EE00E94AF1086
:1023E000CE010E94DE1080E190E00E946451DF91F6
:1023F000CF911F910895DF92EF92FF920F931F9359
:102400008C01A2E5EA2EACE0FA2EC70168E670E086
:102410000E944A4BC70167E070E00E949A4BC801D6
:10242000F801628D0E949810FFE7DF2ED822F80194
:10243000D782C801638D0E9498108F77F80180873A
:10244000C801648D0E9498108F77F8018187C801B8
:10245000658D0E9498108F73F8018287C7016D2DDA
:102460000E94764BC701F80160850E94764BC70138
:10247000F80161850E94764BC701F80162850E94D0
:10248000764BC7010E949D4B1F910F91FF90EF90DB
:10249000DF9008950F931F93CF93DF93EC0182E5B4
:1024A0009CE068E670E00E944A4B82E59CE060E0B8
:1024B00070E00E949A4BCE01688D0E94981088832C
:1024C000CE016F890E9498108983CE016E890E9487
:1024D00098108A838D898B83CE01698D0E94981014
:1024E0008C83CE016C890E9498108D83CE016B89FC
:1024F0000E9498108E8300E010E0FE01E00FF11FB3
:1025000082E59CE060810E94764B0F5F1F4F073091
:10251000110599F782E59CE00E949D4BDF91CF91D8
:102520001F910F910895DC01FB01218120538081CF
:1025300080533AE0839FC0011124280F53962C93B7
:1025400053972481205383818053839FC00111249A
:10255000280F54962C9354972781205386818053BB
:10256000839FC0011124280F59962C9359972285D7
:10257000205381858053839FC0011124280F5596D5
:102580002C9355972585205384858053839FC001C4
:102590001124280F56962C9356972089205387850F
:1025A0008053839FC0011124280F57962C9357976F
:1025B0002389205382898053839FC0011124280FCF
:1025C00058962C935897CD010E944A120895CF92A5
:1025D000DF92EF92FF921F93CF93DF937C01162F30
:1025E00082E59CE068E670E00E944A4B82E59CE050
:1025F00060E070E00E949A4B82E59CE00E949D4B57
:1026000082E59CE068E670E042E150E00E94BE4B4B
:10261000C0E0D0E0C12EDD241AE009C182E59CE0D3
:102620000E94544B882309F402C182E59CE00E9479
:102630005A4B282FF701EC0FFD1F8083C630D105C0
:1026400009F482C0C730D105B8F4C230D10509F40D
:102650004EC0C330D10538F4209769F1C130D1059F
:1026600009F0E4C036C0C430D10509F451C0C5300A
:10267000D10508F05BC049C0CA30D10509F49BC040
:10268000CB30D10558F4C830D10509F478C090E0BA
:102690002F70C930D10508F081C064C0CC30D1059D
:1026A00009F4A7C0CC30D10508F494C0CD30D105D1
:1026B00009F0BCC0ADC090E054E0959587955A955F
:1026C000E1F7819FC00111242F70280FF701208F9F
:1026D000ADC090E044E0959587954A95E1F7819FDC
:1026E000C00111242F70280FF701278B9FC090E0A5
:1026F00034E0959587953A95E1F7819FC0011124C3
:102700002F70280FF701268B91C0F701858B8EC0A3
:1027100090E0B4E095958795BA95E1F7819FC00167
:1027200011242F70280FF701218F80C090E0A4E0C2
:1027300095958795AA95E1F7819FC00111242F7087
:10274000280FF701248B72C090E0F4E095958795EF
:10275000FA95E1F7819FC00111242F70280FF7012E
:10276000238B64C0E4E095958795EA95E1F787703F
:10277000819FC0011124280FF701228F57C090E0DC
:1027800074E0959587957A95E1F78770819FC001F0
:1027900011242F70280FF701238F48C064E095950E
:1027A00087956A95E1F78370819FC0011124280FF6
:1027B000F701248F3BC090E054E0959587955A959A
:1027C000E1F78370819FC00111242F70280FF7015A
:1027D000258F2CC090E044E0959587954A95E1F7C8
:1027E0008770819FC00111242F70280FF701268F59
:1027F0001DC090E034E0959587953A95E1F7837098
:10280000819FC00111242F70280FF701278F0EC060
:1028100090E0B4E095958795BA95E1F78370819F34
:10282000C00111242F70280FF70120A32196CC1688
:10283000DD0608F0F3CEDF91CF911F91FF90EF906E
:10284000DF90CF9008951F93CF93DF93EC01FB01AE
:10285000122F21812053808180533AE0839FC00151
:102860001124280F2D8F2481205383818053839F2F
:10287000C0011124280F2C8F27812053868180537B
:10288000839FC0011124280F2B8F2285205381851F
:102890008053839FC0011124280F2A8F442309F0FD
:1028A0005BC0CE0166E00E94E712988D8A8D980F7A
:1028B0009A8F9C3328F09C539A8F8B8D8F5F8B8FD0
:1028C0009F898B8D980F9B8F9C3328F09C539B8FF7
:1028D0008C8D8F5F8C8F9E898C8D980F9C8F9831FB
:1028E00028F098519C8F8D8D8F5F8D8F2D8D1123AA
:1028F00039F48D89820F8D8F883070F187502BC00D
:10290000998D920F9D8F8C89813051F0833041F0E9
:10291000853031F0873021F0883011F08C3021F48F
:10292000903210F09F519D8F8C89843041F0863019
:1029300031F0893021F08A3011F08B3029F48D8DFF
:102940008F3110F08E518D8F8C89823029F48D8DCE
:102950008D3110F08C518D8F81EE9BE00E94FB1128
:1029600081EE9BE061E0412F0E94EB10DF91CF915F
:102970001F9108950F931F93CF93DF93EC01042FC2
:102980006FA380E361E00E944A4E1FA1113019F04D
:10299000103199F40DC080E361E00E94684E01306F
:1029A00019F482E08A8B09C0002339F41A8B05C020
:1029B00080E360E00E94684E1A8ADF91CF911F91F8
:1029C0000F9108958091520C882341F080915B0C07
:1029D000882321F48FE499E00E948C0408950F93DA
:1029E0001F938C010E94E214C80160E140E00E9444
:1029F000BA141F910F910895CF93DF93EC0161E01A
:102A000040E00E94BA148091520C882321F482E5A0
:102A10009CE00E94C14BCE010E94D310CE010E94C7
:102A20007E10CE016DE00E94E712DF91CF910895F4
:102A30000E94FC14089510920B0C08950F931F939D
:102A4000CF93DF93DC018B01EC01C658DD4F198277
:102A5000188240E0BE0106C04F5F2F5F3F4FFB0171
:102A600031832083FB0120813181F801E20FF31FC4
:102A70008081882389F7469583E090E09983888355
:102A800090E0ED01C658DD4F50E00BC0FD01E20FB4
:102A9000F31FE857FD4F8081980F2F5F3F4F398319
:102AA0002883288139812417350780F3892F809561
:102AB000A40FB51FA957BD4F8C93DF91CF911F91E4
:102AC0000F910895AF92BF92CF92DF92EF92FF9253
:102AD0000F931F93CF93DF937C018B0106551F4FFC
:102AE000D8018C910A5A1040F801E855FF4F813007
:102AF00009F024C1C22EDD24DA01AC0DBD1D83E234
:102B00008C938081813009F446C0813020F082307E
:102B100009F038C2AAC011961C92119701571F4F95
:102B2000F80181918F0112968C9312978081005940
:102B3000104013968C931397F701E658FD4F1182BE
:102B40001082EF01FCE7CF2EF2E0DF2ECE0CDF1C6F
:102B5000B70162587D4FAD010FC0FA01E20FF31FBC
:102B6000A00FB11FA20FB31F1C968C918483888184
:102B7000998101969983888328813981F601A08102
:102B8000B181FB018081918101968A1B9B0B2817E3
:102B9000390718F3F7C111968C93B70166587D4F2A
:102BA000DB011D921C92EB0110C0FA01EA0FFB1F22
:102BB000EC0DFD1DA00FB11FA557BF4F8C91828357
:102BC00088819981019699838883A881B981A430ED
:102BD000B10558F3FB0111821082E701C658DD4FA1
:102BE00010C0FA01EA0FFB1FEC0DFD1DA00FB11F75
:102BF000A957BF4F8C9186838881998101969983CB
:102C00008883A881B981A430B10558F3198218824C
:102C1000E701C658DD4FECE7AE2EE2E0BE2EAE0C6B
:102C2000BF1C970122583D4F11C0FA01E60FF71F54
:102C3000EC0DFD1DA00FB11FA60FB71F1C968C91A8
:102C400082878881998101969983888368817981B7
:102C5000F501A081B181F9018081918101968A1BE2
:102C60009B0B6817790708F38DC111968C93C0E010
:102C7000D0E0D701A658BD4F06C0E9016F5F7F4F76
:102C800011967C936E936D917C911197F801E60FEC
:102C9000F71FEF56FF4F80819E012F5F3F4F83321A
:102CA00061F71D921C92E701C658DD4F10C0FA0172
:102CB000EA0FFB1FEC0DFD1DA00FB11FAF56BF4F5C
:102CC0008C91828388819981019699838883A881D8
:102CD000B981A217B30758F319821882E701C658C1
:102CE000DD4F7CE7A72E72E0B72EAE0CBF1C8EE73F
:102CF00092E0E80EF91E13C0FA01E60FF71FE20F8B
:102D0000F31FEC0DFD1DA00FB11FA60FB71F1C96E2
:102D10008C918283888199810196998388836881C7
:102D20007981F501A081B181F701808191810196BE
:102D30008A1B9B0B68177907F8F224C180818130C8
:102D400009F446C0813020F0823009F01BC1AEC0CA
:102D500030E0FA01E20FF31F108201571F4FD80134
:102D60008D918D0181838C91005910408283F701F0
:102D7000E658FD4F11821082EF016CE7C62E62E02B
:102D8000D62ECE0CDF1CEEE7F2E0EE0EFF1E11C0D9
:102D9000FA01E60FF71FE20FF31FA00FB11FA60FF6
:102DA000B71F1C968C9183838881998101969983A2
:102DB000888368817981F601A081B181F7018081E2
:102DC000918101968A1B9B0B6817790708F3DAC07B
:102DD00030E0FA01E20FF31F8083B70166587D4FA0
:102DE000DB011D921C92EB0110C0FA01EA0FFB1FE0
:102DF000E20FF31FA00FB11FA557BF4F8C91818326
:102E000088819981019699838883A881B981A430AA
:102E1000B10558F3FB0111821082E701C658DD4F5E
:102E200010C0FA01EA0FFB1FE20FF31FA00FB11F42
:102E3000A957BF4F8C918583888199810196998389
:102E40008883A881B981A430B10558F3198218820A
:102E5000E701C658DD4F9CE7C92E92E0D92ECE0C73
:102E6000DF1C8EE792E0E80EF91E11C0FA01E60FB2
:102E7000F71FE20FF31FA00FB11FA60FB71F1C967D
:102E80008C91818788819981019699838883688153
:102E90007981F601A081B181F7018081918101964C
:102EA0008A1B9B0B6817790708F36CC0C22EDD24C0
:102EB000FA01EC0DFD1D8083C0E0D0E0D701A658DB
:102EC000BD4F06C0E9016F5F7F4F11967C936E93F3
:102ED0006D917C911197F801E60FF71FEF56FF4FA8
:102EE00080819E012F5F3F4F833261F71D921C92BC
:102EF000E701C658DD4F10C0FA01EA0FFB1FEC0DC9
:102F0000FD1DA00FB11FAF56BF4F8C9181838881EB
:102F10009981019699838883A881B981A217B30703
:102F200058F319821882E701C658DD4F8CE7A82EA6
:102F300082E0B82EAE0CBF1C8EE792E0E80EF91EC0
:102F400013C0FA01E60FF71FE20FF31FEC0DFD1D92
:102F5000A00FB11FA60FB71F1C968C91818388818B
:102F6000998101969983888368817981F501A0818F
:102F7000B181F7018081918101968A1B9B0B6817B3
:102F80007907F8F2DF91CF911F910F91FF90EF90A9
:102F9000DF90CF90BF90AF9008953F924F925F9295
:102FA0006F927F928F929F92AF92BF92CF92DF9259
:102FB000EF92FF920F931F93DF93CF9300D000D037
:102FC000CDB7DEB76B014A017901AA24A39410E0C2
:102FD00022E730E0C20ED31E21E3422E9DE7792E78
:102FE00083E3382EBEE56B2EADE55A2E30C1D401F9
:102FF000A60FB71F8C91813111F090E04AC04C921E
:10300000F70180818F5F80838C917C926F5F7F4F0F
:103010009401260F371F3C832B8361507040FB01C6
:103020003296FA83E98320C0EB81FC81B180418331
:1030300049815A814F5F5F4F3296FC83EB83298130
:103040003A812E5F3F4F3A832983F70180819801AF
:10305000280F311DC901F60120813181820F931F94
:1030600048175907A8F48B2DEB81FC8140818083A0
:10307000F70180819801280F311DC901F6012081D7
:103080003181820F931F29813A812817390760F215
:1030900091E08C91833109F04DC0992309F04AC029
:1030A0003C92F70180818F5F80838C917C926F5F6F
:1030B0007F4F9401260F371F3C832B836150704054
:1030C000FB013296FA83E98320C0EB81FC81B18059
:1030D000418349815A814F5F5F4F3296FC83EB8376
:1030E00029813A812E5F3F4F3A832983F7018081FE
:1030F0009801280F311DC901F60120813181820F0D
:10310000931F48175907A8F48B2DEB81FC81408150
:103110008083F70180819801280F311DC901F601D4
:1031200020813181820F931F29813A812817390725
:1031300060F291E08C918E3709F04DC0992309F02F
:103140004AC06C92F70180818F5F80838C917C9262
:103150006F5F7F4F9401260F371F3C832B83615095
:103160007040FB013296FA83E98320C0EB81FC8139
:10317000B180418349815A814F5F5F4F3296FC8312
:10318000EB8329813A812E5F3F4F3A832983F701F0
:1031900080819801280F311DC901F60120813181FC
:1031A000820F931F48175907A8F48B2DEB81FC81E0
:1031B00040818083F70180819801280F311DC9016A
:1031C000F60120813181820F931F29813A812817CE
:1031D000390760F291E02C912D37C1F59923B1F5B3
:1031E0005C92F70180818F5F80838C912C936F5F5D
:1031F0007F4FF401E60FF71F6F5F7F4F17C0B1805D
:103200004183AB014F5F5F4F32966E5F7F4FD701B7
:103210008C919801280F311DC901D6012D913C9147
:10322000820F931F4817590788F48B2D40818083A4
:10323000D7018C919801280F311DC901D6012D911C
:103240003C91820F931F68177907C8F2A3946A2DE7
:1032500070E0F70180819801280F311DC901D60166
:103260002D913C91820F931F6817790708F4BFCE08
:103270000F900F900F900F90CF91DF911F910F91B2
:10328000FF90EF90DF90CF90BF90AF909F908F9086
:103290007F906F905F904F903F900895DF92EF92F4
:1032A000FF920F931F93CF93DF93890180E090E00B
:1032B000F3E1DF2EEEE7EE2E31E1F32E37C02F5F84
:1032C0003F4F9C919D3731F0119631962417350769
:1032D000B0F32DC02417350750F5E9012196E60F0C
:1032E000F71F8181833361F0843318F4813369F4EB
:1032F00005C08D3549F08E3541F404C0FC9205C0FF
:10330000DC9203C0EC9201C09C9341505040F90103
:10331000E00FF11FE60FF71F02C0818180832F5F4E
:103320003F4F3196CE0124173507B8F39C0124177F
:10333000350738F4F901E00FF11FDB01AE0FBF1FB5
:10334000C0CFDF91CF911F910F91FF90EF90DF9051
:103350000895EF92FF920F931F93CF93DF938C0109
:10336000EB017A01FC01E658FD4F2D5F3F4F3183A1
:10337000208323503040A0E0B0E0AF010BC0FE013D
:10338000E60FF71F8081A80FB11D6F5F7F4FFA0115
:1033900071836083FA01608171816E157F0578F316
:1033A000AF3FB10521F0AF3F11F081E008C00852F6
:1033B0001E4FC20FD31F8C81F801808380E0DF9104
:1033C000CF911F910F91FF90EF900895EF92FF9290
:1033D0000F931F93CF93DF93EC01CA5BDD4FE8801F
:1033E0008DEEE80E24978881C254D240813009F0D6
:1033F000C9C0CD5DDE4FF880C352D140FA948E0132
:1034000006581D4FD8011D921C92B8012F2D30E097
:1034100087E290E0289FA001299F500D389F500D12
:1034200011244C0F5D1F11C0FA01EA0FFB1FE05A77
:10343000FF4FAC0FBD1FA85BBD4F8C918083FB017C
:1034400080819181019691838083FB01A081B1816C
:10345000A230B10548F3D8011D921C92AE01465826
:103460005D4F2F2D30E087E290E0289FB001299F2B
:10347000700D389F700D11246C0F7D1F11C0FB0162
:10348000EA0FFB1FEE59FF4FAC0FBD1FA65BBD4FF0
:103490008C918083FA018081918101969183808350
:1034A000FA01A081B181A430B10548F311821082E4
:1034B000BE0166587D4F2F2D30E087E290E0289FB7
:1034C000A001299F500D389F500D11244C0F5D1FF6
:1034D00012C0FA01EA0FFB1FEA59FF4FAC0FBD1FE4
:1034E000A25BBD4F8C918083DB018D919C911197E4
:1034F00001968D939C93FB01A081B181A430B1050D
:1035000040F387E290E0289FF001299FF00D389F5B
:10351000F00D1124EC0FFD1FEA57FF4FCE5ADD4F7F
:103520008881C255D2408083E658F040AE014A5BA4
:103530005D4FDA018D919C910D9720F1DB011D9279
:103540001C929E0126583D4FBA01AF0111C0FA01ED
:10355000EA0FFB1FE659FF4FAC0FBD1FAD5ABD4F21
:103560008C918083F9018081918101969183808380
:10357000F901A081B181FB01808191810C97A8178D
:10358000B90728F3CE5BDD4F8881C254D240825008
:10359000843008F047C1CD5DDE4FF880C352D14082
:1035A000FA948E0106581D4FD8011D921C92B80145
:1035B0002F2D30E087E290E0289FA001299F500D39
:1035C000389F500D11244C0F5D1F11C0FA01EA0FF6
:1035D000FB1FE05AFF4FAC0FBD1FA85BBD4F8C9186
:1035E0008083FB0180819181019691838083FB011F
:1035F000A081B181A230B10548F3D8011D921C927F
:10360000AE0146585D4F2F2D30E087E290E0289FB5
:10361000B001299F700D389F700D11246C0F7D1F14
:1036200011C0FB01EA0FFB1FEE59FF4FAC0FBD1F8E
:10363000A65BBD4F8C918083FA01808191810196B8
:1036400091838083FA01A081B181A430B10548F350
:1036500011821082AE0146585D4F2F2D30E087E277
:1036600090E0289FB001299F700D389F700D1124A4
:103670006C0F7D1F12C0FB01EA0FFB1FEA59FF4FC1
:10368000AC0FBD1FA25BBD4F8C918083DA018D9181
:103690009C91119701968D939C93FA01A081B18121
:1036A000A430B10540F311821082AE0146585D4F3F
:1036B0000E2D10E02F2D30E087E290E0289FB00122
:1036C000299F700D389F700D11246C0F7D1F12C043
:1036D000FB01EA0FFB1FE659FF4FAC0FBD1FAE5AAF
:1036E000BD4F8C918083DA018D919C911197019649
:1036F0008D939C93FA01A081B181A017B10740F38B
:1037000011821082BE0166587D4F2F2D30E087E276
:1037100090E0289FA001299F500D389F500D112443
:103720004C0F5D1F14C0FA01EA0FFB1FE258FF4F58
:10373000AC0FBD1FA00FB11FAD5ABD4F8C91808340
:10374000DB018D919C91119701968D939C93FB01C8
:10375000A081B181A230B10530F387E290E0289FCB
:10376000D001299FB00D389FB00D1124AC0FBD1FA3
:10377000A058BF4FFE01EE0DF11DEB5AFD4F819198
:103780008D9380818C93A158B040FB0111821082EF
:10379000AE0146585D4FBD0114C0FB01EA0FFB1F8F
:1037A000EE57FF4FAC0FBD1FA00FB11FA95ABD4F61
:1037B0008C918083DA018D919C91119701968D9364
:1037C0009C93FA01A081B181A230B10530F311823E
:1037D0001082BE0166587D4F87E290E0289FA001CD
:1037E000299F500D389F500D11244C0F5D1F14C0A0
:1037F000FA01EA0FFB1FEC57FF4FAC0FBD1FA00FE4
:10380000B11FA75ABD4F8C918083DB018D919C9194
:10381000119701968D939C93FB01A081B181A230F9
:10382000B10530F3DF91CF911F910F91FF90EF9091
:103830000895CF92DF92EF92FF920F931F93CF9351
:10384000DF93EC016B017A01B901FC01E658FD4FF1
:103850000D5F1F4F1183008303501040A0E0B0E0C4
:103860009F010BC0F601E40FF51F8081A80FB11D69
:103870004F5F5F4FF90151834083F90140815181CE
:103880004617570778F3AF3FB10519F0AF3F09F07E
:103890005AC0F601E00FF11F9581D70115968C9162
:1038A0001597981709F04FC0968116968C91981726
:1038B00009F049C09B01201B310B2930310529F447
:1038C0008781882309F442C03EC087818823D9F5C7
:1038D000FE01E658FD4F11821082BF012950304091
:1038E00012C0FE01E40FF51FE85BFD4FD601A40FE7
:1038F000B51FA00FB11F18968C9180834F5F5F4F4B
:10390000FB0151834083DB014D915C9142175307CA
:1039100040F3CA5BDD4F39832883C654D240F70198
:1039200085818E3491F48681843479F42230310596
:1039300030F0FE01ED5DFE4F80818F5F8083CE0110
:103940000E94E61902C081E001C080E0DF91CF91C2
:103950001F910F91FF90EF90DF90CF900895FC01A1
:10396000E658FD4F11821082DF010BC0FC01E20F0F
:10397000F31FE857FD4F10822F5F3F4F11963C9386
:103980002E932D913C9111972E31310578F30895A6
:10399000CF92DF92EF92FF920F931F93CF93DF931B
:1039A0006C01FC01E658FD4F118210828F01E62E5A
:1039B000FF24E701CC0FDD1FCC0FDD1FCE0DDF1D77
:1039C0001CC0EC0FFD1F3B96EE0FFF1FEC0DFD1D05
:1039D000808191810E948C5BD8018D919C9111977F
:1039E000FE01E80FF91F3B96EE0FFF1FEC0DFD1DCA
:1039F0001182108201968D939C93D801ED91FC91D8
:103A0000E530F105F0F28701000F111F0C0D1D1DAF
:103A1000075B1F4FD801ED91FC9115AA16AA17AAB2
:103A200010AECF010E948C5BF80111821082F6016A
:103A3000ED5AFF4F808181508083DF91CF911F919C
:103A40000F91FF90EF90DF90CF900895AF92BF92CB
:103A5000CF92DF92FF920F931F93CF93DF936C016E
:103A6000FF2460E070E08C0106581D4FD8016D9373
:103A70007C93EB01AA96CC0FDD1FCC0DDD1D23C07E
:103A80005F010894A11CB11CA881B981A555BF4F45
:103A9000BB96EE0FFF1FEC0DFD1D0190F081E02D98
:103AA000E555FF4F2D913D914D915C918081918124
:103AB000A281B38182179307A407B50754F4F39446
:103AC000F801B182A082D801ED91FC91E430F105BA
:103AD000B8F2B4E0FB1621F4F62E65E070E002C007
:103AE000F62EF3946F5F7F4F6530710508F4BECFFB
:103AF0000F2D10E0065D1F4F000F111F0C0D1D1D37
:103B0000F801808191810E948C5BD8011D921C92EA
:103B10008F2DDF91CF911F910F91FF90DF90CF906C
:103B2000BF90AF900895AF92BF92CF92DF92FF9275
:103B30000F931F93CF93DF936C01FF2460E070E03D
:103B40008C0106581D4FD8016D937C93EB01AA960A
:103B5000CC0FDD1FCC0DDD1D23C05F010894A11C1F
:103B6000B11CA881B981A555BF4FBB96EE0FFF1FB1
:103B7000EC0DFD1D0190F081E02DE555FF4F2D91DD
:103B80003D914D915C9180819181A281B3812817F3
:103B900039074A075B0754F4F394F801B182A08215
:103BA000D801ED91FC91E430F105B8F2B4E0FB16D8
:103BB00021F4F62E65E070E002C0F62EF3946F5FFC
:103BC0007F4F6530710508F4BECF0F2D10E0065D04
:103BD0001F4F000F111F0C0D1D1DF80180819181D9
:103BE0000E948C5BD8011D921C928F2DDF91CF918A
:103BF0001F910F91FF90DF90CF90BF90AF900895ED
:103C00000F931F93CF93DF938C01FC01E658FD4F78
:103C100011821082EF0116C0BA96EE0FFF1FE00F5F
:103C2000F11F808191810E948C5B888199818A96A5
:103C3000FC01EE0FFF1FE00FF11F11821082899728
:103C400099838883E881F981E530F10528F3DF91D4
:103C5000CF911F910F910895AF92BF92CF92DF92B3
:103C6000EF92FF920F931F93CF93DF93EC0109E440
:103C7000A02EB12CA80EB91EEE24FF241AE7C12EE7
:103C800012E0D12EC80ED91ED6011D921C928701BA
:103C9000000F111F000F111F0E0D1F1D1CC0E00F84
:103CA000F11F3B96EE0FFF1FEC0FFD1F80819181EE
:103CB0000E948C5BF60180819181F801E80FF91F69
:103CC0003B96EE0FFF1FEC0FFD1F11821082019635
:103CD000D6018D939C93D601ED91FC91E530F105D1
:103CE000F0F2D501ED91FC9115AA16AA17AA10AE13
:103CF000CF010E948C5BF501119211925F01089433
:103D0000E11CF11CF5E0EF16F10409F0BDCFCD5A2E
:103D1000DF4F1882C65ADD4F188222961882DF9133
:103D2000CF911F910F91FF90EF90DF90CF90BF90B8
:103D3000AF900895AF92BF92CF92DF92EF92FF9231
:103D40000F931F93CF93DF93EC01FC01E355FD4FDD
:103D5000108260E070E01AE7A12E12E0B12EA80EEA
:103D6000B91E7F01D5016D937C938B01000F111F4C
:103D70000C0F1D1F075B1F4F28C0D8018D919C9110
:103D80006F010894C11CD11CF601EE0FFF1FEC0F50
:103D9000FD1FE75BFF4F0190F081E02DDC01D59620
:103DA0002D913D914D915C91D89785A996A9A7A990
:103DB000B0AD281739074A075B076CF4F70180811B
:103DC0008F5F8083D501CD92DC92D501ED91FC917E
:103DD000E430F10590F2F7018081843021F46083B2
:103DE00065E070E004C0862F8F5FD7018C936F5F12
:103DF0007F4F6530710508F4B5CFFE01E658FD4FE1
:103E0000118210828F017DEAE72E72E0F72EEC0E10
:103E1000FD1E2FC0F701808190E0FC01EE0FFF1F17
:103E2000EE0FFF1FE80FF91FE20FF31F3B96EE0F97
:103E3000FF1FEC0FFD1F808191810E948C5BD701D9
:103E40008C9190E0FC01EE0FFF1FEE0FFF1FE80FBB
:103E5000F91FD8018D919C911197E80FF91F3B969E
:103E6000EE0FFF1FEC0FFD1F1182108201968D9344
:103E70009C93F801208131812530310558F2D7011A
:103E8000EC91F0E0EE0FFF1FEC0FFD1FE75BFF4F23
:103E90000190F081E02D15AA16AA17AA10AEEC9198
:103EA000F0E0EE0FFF1FEC0FFD1FE75BFF4F80817F
:103EB00091810E948C5BD701EC91F0E0EE0FFF1F27
:103EC000EC0FFD1FE75BFF4F11821082FE01ED5AE0
:103ED000FF4F808181508083C155DD4F1882DF9173
:103EE000CF911F910F91FF90EF90DF90CF90BF90F7
:103EF000AF9008952F923F924F925F926F927F9270
:103F00008F929F92AF92BF92CF92DF92EF92FF92E9
:103F10000F931F93DF93CF93CDB7DEB760970FB6A4
:103F2000F894DEBF0FBECDBF7C016B01FC01E658EB
:103F3000FD4F118210822FEA32E0E20EF31ED7010C
:103F40008C9121E53DEFE20EF31E882311F1DF0194
:103F500010C0F901EE0FFF1FEE0DFF1DE75BFF4FD5
:103F600080819181892B59F02F5F3F4F11963C93AF
:103F70002E932D913C9111972530310550F34DEA48
:103F800052E0E40EF51ED7012C93E3E5FDEFEE0EB3
:103F9000FF1E2AE732E0E20EF31ED7011D921C92AB
:103FA000E8ECFFEFEE0EFF1ED7018C91EEEBFDEF7C
:103FB000EE0EFF1E813079F026E432E0E20EF31EB1
:103FC000D7018D919C91EAEBFDEFEE0EFF1E0C9751
:103FD00070F50C94743120E832E0E20EF31ED70144
:103FE0008C91E0E8FDEFEE0EFF1E882379F426E4C5
:103FF00032E0E20EF31ED7018D919C91EAEBFDEFCA
:10400000EE0EFF1E059798F40C947431813079F40C
:1040100026E432E0E20EF31ED7018D919C91EAEB8B
:10402000FDEFEE0EFF1E0B9710F40C94743100E0C0
:1040300010E06624882477249924B70166587D4FC0
:10404000E2E44E2EE2E05E2E4E0C5F1C51E8252E7F
:1040500052E0352E2E0C3F1C970120583D4F3E87D5
:104060002D87DB011D921C92F801EE0FFF1FEE0D54
:10407000FF1DE75BFF4F0190F081E02D85A996A918
:10408000A7A9B0AD181619061A061B060CF08CC3AA
:10409000D2018C91813009F0D0C1AD85BE858C9163
:1040A000882309F0E1C0D60114969C911497808171
:1040B000981709F079C3AA24BB2416968C918332F1
:1040C00019F431E0A32EB12C96012A0D3B1DD90124
:1040D00016968C91DB011D921C928130A9F08130E3
:1040E00020F0823009F088C070C09389D9011796FA
:1040F0008C911797981709F07FC0948918968C9126
:10410000981709F079C07CC0FB0111821082A801C8
:10411000440F551F4E0D5F1D475B5F4F17C0FA01DF
:10412000A081B181A20FB31FF601E20FF31FEA0DC8
:10413000FB1D1B969C918781981719F08824839406
:104140000BC02F5F3F4FDB012D933C93FB01208180
:1041500031812430310518F3DB011D921C92A80136
:10416000440F551F4E0D5F1D475B5F4F14C0FA0192
:10417000A081B181A20FB31FF601E20FF31FEA0D78
:10418000FB1D1F969C9183859817A1F52F5F3F4FCC
:10419000DB012D933C93FB012081318124303105DB
:1041A00030F325C0992787FD9095F601E40FF51FA0
:1041B000EA0DFB1D278130E082179307D9F44F5F8A
:1041C0005F4FFB015183408307C0D801AA0FBB1F7B
:1041D000AE0DBF1DA75BBF4FFB0140815181ED912B
:1041E000FC911197E40FF51F85898332D9F6882059
:1041F00039F002C088248394F1E06F1609F0D4C22C
:10420000702E21E0A216B10479F4E02FF0E0EE0F59
:10421000FF1FEE0DFF1DE75BFF4F0190F081E02DCA
:10422000D60115968C9182AFE72DF0E0EE0FFF1FBF
:10423000EE0DFF1DE75BFF4FA081B181DB968C91F6
:10424000DB978F5FDB968C930190F081E02DD60198
:1042500012962C91129783A994A9820F911D94AB69
:1042600083AB15969C90E3C0813009F09DC2D601C6
:104270001A969C911A978081981709F095C2AA24E2
:10428000BB241C968C91833219F4B1E0AB2EB12C77
:1042900096012A0D3B1DD9011C968C91DB011D92C4
:1042A0001C928130A9F0813020F0823009F088C062
:1042B00070C09389D9011D968C911D97981709F0AC
:1042C0007FC094891E968C91981709F079C07CC0A4
:1042D000FB0111821082A801440F551F4E0D5F1D76
:1042E000475B5F4F17C0FA01A081B181A20FB31FD6
:1042F000F601E20FF31FEA0DFB1D1B969C918585CD
:10430000981719F0882483940BC02F5F3F4FDB016F
:104310002D933C93FB01208131812430310518F32A
:10432000DB011D921C92A801440F551F4E0D5F1D0D
:10433000475B5F4F14C0FA01A081B181A20FB31F88
:10434000F601E20FF31FEA0DFB1D1F969C91818978
:104350009817A1F52F5F3F4FDB012D933C93FB0195
:10436000208131812430310530F325C0992787FD24
:104370009095F601E40FF51FEA0DFB1D258530E051
:1043800082179307D9F44F5F5F4FFB01518340833E
:1043900007C0D801AA0FBB1FAE0DBF1DA75BBF4F43
:1043A000FB0140815181ED91FC911197E40FF51FC4
:1043B00085898332D9F6882039F002C08824839415
:1043C000F1E06F1609F0F0C1702E21E0A216B104E1
:1043D00079F4E02FF0E0EE0FFF1FEE0DFF1DE75B1D
:1043E000FF4F0190F081E02DD6011B968C9182AF9A
:1043F000E72DF0E0EE0FFF1FEE0DFF1DE75BFF4F17
:10440000A081B181DB968C91DB978F5FDB968C93DB
:104410000190F081E02DD60118962C91189783A970
:1044200094A9820F911D94AB83AB1B969C909A9498
:10443000B4E0B91508F0B4C1F8C68250843008F071
:10444000B3C1D1018C91882309F0D2C0D6011B964B
:104450009C911B978081981709F0A6C1AA24BB24C0
:104460001D968C91833219F431E0A32EB12C960164
:104470002A0D3B1DD9011D968C91DB011D921C92CA
:104480008130A9F0813020F0823009F088C070C0FE
:104490009389D9011E968C911E97981709F07FC0B9
:1044A00094891F968C91981709F079C07CC0FB0104
:1044B00011821082A801440F551F4E0D5F1D475BEE
:1044C0005F4F17C0FA01A081B181A20FB31FF6019F
:1044D000E20FF31FEA0DFB1D1B969C918685981732
:1044E00019F0882483940BC02F5F3F4FDB012D937D
:1044F0003C93FB01208131812430310518F3DB012D
:104500001D921C92A801440F551F4E0D5F1D475B65
:104510005F4F14C0FA01A081B181A20FB31FF60151
:10452000E20FF31FEA0DFB1D1F969C9182899817DD
:10453000A1F52F5F3F4FDB012D933C93FB012081C1
:1045400031812430310530F325C0992787FD9095BE
:10455000F601E40FF51FEA0DFB1D268530E08217FA
:104560009307D9F44F5F5F4FFB015183408307C02E
:10457000D801AA0FBB1FAE0DBF1DA75BBF4FFB012C
:1045800040815181ED91FC911197E40FF51F8589D0
:104590008332D9F6882039F002C088248394F1E070
:1045A0006F1609F001C1702E21E0A216B10479F452
:1045B000E02FF0E0EE0FFF1FEE0DFF1DE75BFF4F5A
:1045C0000190F081E02DD6011C968C9182AFE72DF1
:1045D000F0E0EE0FFF1FEE0DFF1DE75BFF4F0190B8
:1045E000F081E02D83AD8F5F83AFF6019484D3C05B
:1045F000823009F0D9C0D60151969C9151978081A3
:10460000981709F0D1C0AA24BB2453968C91833209
:1046100019F4B1E0AB2EB12C96012A0D3B1DD90146
:1046200053968C91DB011D921C928130A9F0813050
:1046300020F0823009F088C070C09389D901549667
:104640008C915497981709F07FC0948955968C9156
:10465000981709F079C07BC0FB0111821082A80174
:10466000440F551F4E0D5F1D475B5F4F17C0FA018A
:10467000A081B181A20FB31FF601E20FF31FEA0D73
:10468000FB1D1B969C918489981719F088248394AC
:104690000BC02F5F3F4FDB012D933C93FB0120812B
:1046A00031812430310518F3DB011D921C92A801E1
:1046B000440F551F4E0D5F1D475B5F4F14C0FA013D
:1046C000A081B181A20FB31FF601E20FF31FEA0D23
:1046D000FB1D1F969C91808D9817A1F52F5F3F4F72
:1046E000DB012D933C93FB01208131812430310586
:1046F00030F325C0992787FD9095F601E40FF51F4B
:10470000EA0DFB1D248930E082179307D9F44F5F2F
:104710005F4FFB015183408307C0D801AA0FBB1F25
:10472000AE0DBF1DA75BBF4FFB0140815181ED91D5
:10473000FC911197E40FF51F85898332D9F6882003
:1047400031F002C088248394F1E06F1669F5702E71
:1047500021E0A216B10479F4E02FF0E0EE0FFF1F84
:10476000EE0DFF1DE75BFF4F0190F081E02DD601BC
:1047700052968C9182AFE72DF0E0EE0FFF1FEE0D09
:10478000FF1DE75BFF4F0190F081E02D83AD8F5F50
:1047900083AFF60192889A94F4E0F91508F445C5C0
:1047A00005E010E0662463940F5F1F4F053011058C
:1047B00008F457CC2AE732E0E20EF31ED7011D922F
:1047C0001C92E6E8FDEFEE0EFF1E662009F015C60E
:1047D000870103551D4FD8017C90EFEAF2E0EE0E01
:1047E000FF1E81E0D7018C93E4EAFDEFEE0EFF1E81
:1047F000D7018C91EDEAFFEFEE0EFF1E853028F019
:10480000C7010E949A1ED8017C90F701ED5AFF4F14
:1048100080818F5F8083A72CBB2481E090E06EE3D2
:1048200070E00E94C35AFC012501440C551C4E0C3B
:104830005F1C29E430E0420E531ED2018D939C93FD
:10484000009709F4F8C522E432E0E20EF31ED70126
:104850008C912EEB3DEFE20EF31E813009F084C205
:1048600040E852E0E40EF51ED7018C9120E83DEFC0
:10487000E20EF31E882309F022C112A6D201ED91A7
:10488000FC91D60114968C918083F20100811181F4
:104890000E940203D801D5966D937D938D939C93CE
:1048A000D897F701E658FD4F118210829F01A201AF
:1048B00011C0FA01608171816A0F7B1FAC0DBD1DB3
:1048C0008C91DB0119968C93F9018081918101967D
:1048D00091838083F901A081B181A230B10548F3B1
:1048E00040E050E0D60116968C91833211F441E0FD
:1048F00050E0D501AA0FBB1FAE0DBF1DA75BBF4F78
:104900002D913C911197B601640F751FFB018681B3
:10491000F90181A7970126583D4FF90111821082B4
:104920000D911C911197F80181A5813089F081309A
:1049300020F0823009F089C063C0FB018781F80153
:10494000838BED91FC91DB0118968C91848B7DC05B
:10495000F901118210824901BD0114C0FB010081DF
:1049600011810A0F1B1FAC0DBD1DA40FB51F17969B
:104970008C91D8011B968C93F401808191810196D2
:1049800091838083F401A081B181A430B10530F31B
:10499000D9011D921C92970126583D4FB501660F13
:1049A000771F6E0D7F1D675B7F4F14C0FB01008179
:1049B00011810A0F1B1FAC0DBD1DA40FB51F1B9647
:1049C0008C91D8011F968C93F90180819181019679
:1049D00091838083F901A081B181A430B10530F3C6
:1049E00034C0ED91FC911197E80FF91F258BFB0165
:1049F00080819181019691838083459710F00CC04E
:104A0000B901FB0180819181F601E80FF91FE40FE4
:104A1000F51F2781233229F7F501EE0FFF1FEE0D59
:104A2000FF1DE75BFF4F0190F081E02D2AE732E0A8
:104A3000E20EF31ED7018D919C9126E83DEFE20E28
:104A4000F31EE80FF91F83E2858B4130510571F4A5
:104A5000F501EE0FFF1FEE0DFF1DE75BFF4F01900D
:104A6000F081E02DD60115968C9182AFD501AA0F69
:104A7000BB1FAE0DBF1DA75BBF4FED91FC91119702
:104A800091E093AFF60195809A94F4E0F91508F45B
:104A9000CCC32D913C911197F6018281F90183AB32
:104AA00014AAF6018381F90182ABED91FC9182A9F0
:104AB0008150823010F493A7A0C413A69EC4813005
:104AC00009F09BC482A7D201ED91FC91D6011A9600
:104AD0008C918083F201008111810E940203D80130
:104AE000D5966D937D938D939C93D897A701465847
:104AF0005D4FFA01118210829A01B20111C0FB01CF
:104B0000008111810A0F1B1FAC0DBD1D8C91D801B6
:104B100015968C93F9018081918101969183808310
:104B2000F901A081B181A430B10548F3DA011D92E9
:104B30001C92970126583D4FA501440F551F4E0D5D
:104B40005F1D475B5F4F12C0FA01608171816A0F80
:104B50007B1FAC0DBD1D14968C91DB0111968C93BF
:104B6000F90180819181019691838083F901A0816F
:104B7000B181A430B10540F360E070E0D6011C962D
:104B80008C91833211F461E070E0D501AA0FBB1F54
:104B9000AE0DBF1DA75BBF4F2D913C911197A60194
:104BA000460F571FFA018485F90181A797012658FE
:104BB0003D4FF901118210820D911C911197F8015E
:104BC00081A5813089F0813020F0823009F089C0E0
:104BD00063C0FA018585F801838BED91FC91DA01C0
:104BE0001E968C91848B7DC0F9011182108249013F
:104BF000AD0114C0FA01008111810A0F1B1FAC0D19
:104C0000BD1DA60FB71F1D968C91D8011B968C93C6
:104C1000F40180819181019691838083F401A081C8
:104C2000B181A430B10530F3D9011D921C929701D6
:104C300026583D4FA501440F551F4E0D5F1D475B84
:104C40005F4F14C0FA01008111810A0F1B1FAC0DC8
:104C5000BD1DA60FB71F51968C91D8011F968C933E
:104C6000F90180819181019691838083F901A0816E
:104C7000B181A430B10530F334C0ED91FC911197AE
:104C8000E80FF91F258BFA018081918101969183AC
:104C90008083459710F00CC0A901FA0180819181B1
:104CA000F601E80FF91FE60FF71F2585233229F7D4
:104CB000F501EE0FFF1FEE0DFF1DE75BFF4F0190AB
:104CC000F081E02D2AE732E0E20EF31ED7018D914C
:104CD0009C9126E83DEFE20EF31EE80FF91F83E2F8
:104CE000858BD501AA0FBB1FAE0DBF1DA75BBF4FA4
:104CF0002D913C911197F6018085F90183AB14AA9F
:104D0000F6018185F90182ABED91FC9182A9815078
:104D1000823018F481E083A701C013A661307105C9
:104D200071F4F501EE0FFF1FEE0DFF1DE75BFF4F66
:104D30000190F081E02DD6011B968C9182AFAA0CD8
:104D4000BB1CAE0CBF1CE9E4F0E0AE0EBF1ED501EB
:104D5000ED91FC9181E083AFF60193849A94F4E0A5
:104D6000F91508F04AC361C28250843008F045C387
:104D700021E832E0E20EF31ED7018C912FE73DEFE0
:104D8000E20EF31E882309F066C1D6011B968C91B2
:104D90008083F201008111810E940203D801D5961F
:104DA0006D937D938D939C93D89740E050E0F601EE
:104DB0008585833211F441E050E0D501AA0FBB1F75
:104DC000AE0DBF1DA75BBF4F2D913C911197B60152
:104DD000640F751FFB018585F90181A7970126588E
:104DE0003D4FF901118210820D911C911197F8012C
:104DF00081A5813089F0813020F0823009F089C0AE
:104E000063C0FB018685F801838BED91FC91DB018A
:104E10001F968C91848B7DC0F9011182108249010B
:104E2000BD0114C0FB01008111810A0F1B1FAC0DD5
:104E3000BD1DA40FB51F1E968C91D8011B968C9397
:104E4000F40180819181019691838083F401A08196
:104E5000B181A430B10530F3D9011D921C929701A4
:104E600026583D4FB501660F771F6E0D7F1D675B9E
:104E70007F4F14C0FB01008111810A0F1B1FAC0D75
:104E8000BD1DA40FB51F52968C91D8011F968C930F
:104E9000F90180819181019691838083F901A0813C
:104EA000B181A430B10530F334C0ED91FC9111977C
:104EB000E80FF91F258BFB01808191810196918379
:104EC0008083459710F00CC0B901FB01808191816E
:104ED000F601E80FF91FE40FF51F2685233229F7A5
:104EE000F501EE0FFF1FEE0DFF1DE75BFF4F019079
:104EF000F081E02D2AE732E0E20EF31ED7018D911A
:104F00009C9126E83DEFE20EF31EE80FF91F83E2C5
:104F1000858B4130510571F4F501EE0FFF1FEE0D49
:104F2000FF1DE75BFF4F0190F081E02DD6011C963D
:104F30008C9182AFD501AA0FBB1FAE0DBF1DA75B21
:104F4000BF4FED91FC91119781E083AFF6019484FE
:104F50009A94F4E0F91508F468C1970126583D4F7A
:104F6000F901118210828901AD0111C0FA0160813D
:104F700071816A0F7B1FAC0DBD1D8C91DB011596F5
:104F80008C93F80180819181019691838083F8014F
:104F9000A081B181A430B10548F3D9011D921C92C2
:104FA000970126583D4FA501440F551F4E0D5F1D1B
:104FB000475B5F4F12C0FA01608171816A0F7B1FEE
:104FC000AC0DBD1D14968C91DB0111968C93F901EB
:104FD00080819181019691838083F901A081B181C3
:104FE000A430B10540F311821082970126583D4F3D
:104FF000A501440F551FD701A40FB51FA75BBF4FD5
:1050000011C06D917C911197680F791F8C0D9D1DBA
:10501000FC018085FB018187F901808191810196E6
:1050200091838083F901808191818230910548F3D9
:10503000D701A40FB51FA75BBF4FED91FC9111974E
:1050400013A62D913C911197F6018285F90182AB4F
:10505000ED91FC91CDC1823009F0CFC1D6015196BE
:105060008C918083F201008111810E940203D8019A
:10507000D5966D937D938D939C93D89740E050E0A7
:10508000F6018389833211F441E050E0D501AA0F83
:10509000BB1FAE0DBF1DA75BBF4F2D913C9111975C
:1050A000B601640F751FFB018389F90181A7970180
:1050B00026583D4FF901118210820D911C911197D4
:1050C000F80181A5813089F0813020F0823009F02B
:1050D00089C063C0FB018489F801838BED91FC9149
:1050E000DB0155968C91848B7DC0F9011182108271
:1050F0004901BD0114C0FB01008111810A0F1B1F72
:10510000AC0DBD1DA40FB51F54968C91D8011B96F4
:105110008C93F40180819181019691838083F401C5
:10512000A081B181A430B10530F3D9011D921C9248
:10513000970126583D4FB501660F771F6E0D7F1DF5
:10514000675B7F4F14C0FB01008111810A0F1B1F99
:10515000AC0DBD1DA40FB51F58968C91D8011F969C
:105160008C93F90180819181019691838083F9016B
:10517000A081B181A430B10530F334C0ED91FC9130
:105180001197E80FF91F258BFB0180819181019612
:1051900091838083459710F00CC0B901FB01808199
:1051A0009181F601E80FF91FE40FF51F24892332DE
:1051B00029F7F501EE0FFF1FEE0DFF1DE75BFF4F17
:1051C0000190F081E02D2AE732E0E20EF31ED701D4
:1051D0008D919C9126E83DEFE20EF31EE80FF91F3A
:1051E00083E2858B4130510571F4F501EE0FFF1F0D
:1051F000EE0DFF1DE75BFF4F0190F081E02DD60122
:1052000052968C9182AFD501AA0FBB1FAE0DBF1D68
:10521000A75BBF4FED91FC91119781E083AFF60141
:1052200092889A94F4E0F91518F4C701672D2BC5FC
:10523000970126583D4FF901118210828901AD0175
:1052400011C0FA01608171816A0F7B1FAC0DBD1D19
:105250008C91DB0115968C93F801808191810196E8
:1052600091838083F801A081B181A430B10548F316
:10527000D9011D921C92970126583D4FA501440F5C
:10528000551F4E0D5F1D475B5F4F12C0FA016081D5
:1052900071816A0F7B1FAC0DBD1D14968C91DB01D3
:1052A00011968C93F901808191810196918380837D
:1052B000F901A081B181A430B10540F311821082BF
:1052C000970126583D4FA501440F551FB701640FA4
:1052D000751F675B7F4F12C0FB01008111810A0FB0
:1052E0001B1FAC0DBD1D18968C91D80119968C937F
:1052F000F90180819181019691838083F901A081D8
:10530000B181A230B10540F3F701E40FF51FE75B6F
:10531000FF4FA081B18182E09B968C9340815181A7
:10532000D6011A968C91DA019C968C930190F081AB
:10533000E02DD6011B968C9185A7F9011182108270
:10534000970126583D4FA501440F551F4E0D5F1D77
:10535000475B5F4F12C0FA01608171816A0F7B1F4A
:10536000AC0DBD1D1C968C91DB019E968C93F901B2
:1053700080819181019691838083F901A081B1811F
:10538000A230B10540F311821082970126583D4F9B
:10539000A501440F551FD701A40FB51FA75BBF4F31
:1053A00011C06D917C911197680F791F8C0D9D1D17
:1053B000FC018685FB0180ABF9018081918101961A
:1053C00091838083F901808191818230910548F336
:1053D000F701E40FF51FE75BFF4F20813181D60114
:1053E00050968C91D901D2968C930190F081E02D4A
:1053F00082A9823011F481E083A7072D10E0A92C47
:10540000BB2481E090E068E670E00E94C35AAC01E2
:10541000F801EE0FFF1FEE0FFF1FE00FF11FEA0D67
:10542000FB1D3B96EE0FFF1FEE0DFF1D51834083CA
:105430004115510521F4C7010E942C1E26C422E407
:1054400032E0E20EF31ED7019C912EEB3DEFE20E0F
:10545000F31E913009F0A2C1A0E8B2E0EA0EFB1EF3
:10546000D7018C9120E83DEFE20EF31E882309F06E
:10547000BCC04A595F4FD60115968C91DA018C93C6
:10548000D60116968C910190F081E02D833221F4A3
:10549000E959FF4F908303C0E959FF4F1082F8018B
:1054A000EE0FFF1FEE0FFF1FE00FF11FEA0DFB1DB8
:1054B0003B96EE0FFF1FEE0DFF1D0190F081E02DDA
:1054C000E959FF4F6081862E9924D701A658BD4F18
:1054D00011961C921E92F801EE0FFF1FEE0DFF1D9C
:1054E000E75BFF4F0190F081E02D81A5813071F0E5
:1054F000813018F0823039F403C082E090E01CC0A3
:1055000040E050E00BC080E090E016C088E090E002
:1055100013C02F5F3F4F11963C932E932D913C91DA
:105520001197F601E20FF31FE80DF91D87814F5F18
:105530005F4F833271F7CA01695F680F262F30E031
:10554000F701EA5BFD4F808191818217930710F488
:1055500031832083F801EE0FFF1FEE0FFF1FE00FD6
:10556000F11FEA0DFB1D3B96EE0FFF1FEE0DFF1D19
:10557000608171816C597F4F46E452E0E40EF51E64
:10558000D7018D919C914AEB5DEFE40EF51E821BD5
:10559000930BDB018D939C93D701A658BD4F1196B9
:1055A0001C921E924D01AF0110C06E0F7F1FEC0DBB
:1055B000FD1DE20FF31F8081FB018083D4018D91DB
:1055C0009C91119701968D939C93D401ED91FC9140
:1055D000DA016D917C916C597F4FDB018D919C912B
:1055E00064567040E817F90700F3E0E8F2E0EE0EC9
:1055F000FF1ED7019C91E0E8FDEFEE0EFF1E9130FB
:1056000009F0CCC0F801EE0FFF1FEE0FFF1FE00FF7
:10561000F11FEA0DFB1D3B96EE0FFF1FEE0DFF1D68
:10562000208131812A593F4FD6011B968C91D90197
:105630008C93D6011C968C910190F081E02D8332E1
:1056400021F4E959FF4F908303C0E959FF4F1082BD
:10565000F801EE0FFF1FEE0FFF1FE00FF11FEA0D25
:10566000FB1D3B96EE0FFF1FEE0DFF1D0190F0811D
:10567000E02DE959FF4F6081862E9924D701A65865
:10568000BD4F11961C921E92F801EE0FFF1FEE0DFA
:10569000FF1DE75BFF4F0190F081E02D81A5813078
:1056A00071F0813018F0823039F403C082E090E06C
:1056B0001CC040E050E00BC080E090E016C088E0E5
:1056C00090E013C02F5F3F4F11963C932E932D9186
:1056D0003C911197F601E20FF31FE80DF91D858546
:1056E0004F5F5F4F833271F7CA01635F680F262FE8
:1056F00030E0F701EA5BFD4F8081918182179307CB
:1057000010F431832083F801EE0FFF1FEE0FFF1F0F
:10571000E00FF11FEA0DFB1D3B96EE0FFF1FEE0D94
:10572000FF1D608171816C597F4F46E452E0E40EA9
:10573000F51ED7018D919C914AEB5DEFE40EF51EAD
:10574000821B930BDB018D939C93D701A658BD4F11
:1057500011961C921E924D01AF0110C06E0F7F1F5B
:10576000EC0DFD1DE20FF31F8081FB018083D4014E
:105770008D919C91119701968D939C93D401ED91FD
:10578000FC91DA016D917C916C597F4FDB018D9119
:105790009C9164567040E817F90700F3E2E4F2E0E8
:1057A000EE0EFF1ED7018C91EEEBFDEFEE0EFF1E0D
:1057B0008250843008F0ABC121E832E0E20EF31EE3
:1057C000D7018C91EFE7FDEFEE0EFF1E882309F065
:1057D000CEC0F801EE0FFF1FEE0FFF1FE00FF11F0D
:1057E000EA0DFB1D3B96EE0FFF1FEE0DFF1D208106
:1057F00031812A593F4FD6011C968C91D9018C9347
:10580000D6011D968C910190F081E02D833229F410
:10581000E959FF4F81E0808303C0E959FF4F1082AF
:10582000F801EE0FFF1FEE0FFF1FE00FF11FEA0D53
:10583000FB1D3B96EE0FFF1FEE0DFF1D0190F0814B
:10584000E02DE959FF4F6081862E9924D701A65893
:10585000BD4F11961C921E92F801EE0FFF1FEE0D28
:10586000FF1DE75BFF4F0190F081E02D81A58130A6
:1058700071F0813018F0823039F403C082E090E09A
:105880001CC040E050E00BC080E090E016C088E013
:1058900090E013C02F5F3F4F11963C932E932D91B4
:1058A0003C911197F601E20FF31FE80DF91D868573
:1058B0004F5F5F4F833271F7CA01625F680F262F17
:1058C00030E0F701EA5BFD4F8081918182179307F9
:1058D00010F431832083F801EE0FFF1FEE0FFF1F3E
:1058E000E00FF11FEA0DFB1D3B96EE0FFF1FEE0DC3
:1058F000FF1D608171816C597F4F46E452E0E40ED8
:10590000F51ED7018D919C914AEB5DEFE40EF51EDB
:10591000821B930BDB018D939C93D701A658BD4F3F
:1059200011961C921E925D01AF0110C06E0F7F1F79
:10593000EC0DFD1DE20FF31F8081FB018083D5017B
:105940008D919C91119701968D939C93D501ED912A
:10595000FC91DA016D917C916C597F4FDB018D9147
:105960009C9164567040E817F90700F3D0C082306C
:1059700009F0CDC0F801EE0FFF1FEE0FFF1FE00F83
:10598000F11FEA0DFB1D3B96EE0FFF1FEE0DFF1DF5
:10599000208131812A593F4FD60152968C91D901ED
:1059A0008C93D60153968C910190F081E02D833237
:1059B00029F4E959FF4F81E0808303C0E959FF4F83
:1059C0001082F801EE0FFF1FEE0FFF1FE00FF11F17
:1059D000EA0DFB1D3B96EE0FFF1FEE0DFF1D019024
:1059E000F081E02DE959FF4F6081862E9924D7017F
:1059F000A658BD4F11961C921E92F801EE0FFF1F84
:105A0000EE0DFF1DE75BFF4F0190F081E02D81A5BA
:105A1000813071F0813018F0823039F403C082E0B7
:105A200090E01CC040E050E00BC080E090E016C069
:105A300088E090E013C02F5F3F4F11963C932E9368
:105A40002D913C911197F601E20FF31FE80DF91D1E
:105A500087894F5F5F4F833271F7CA016C5E680FB1
:105A6000262F30E0F701EA5BFD4F8081918182179C
:105A7000930710F431832083F801EE0FFF1FEE0F20
:105A8000FF1FE00FF11FEA0DFB1D3B96EE0FFF1FFE
:105A9000EE0DFF1D608171816C597F4F46E452E02D
:105AA000E40EF51ED7018D919C914AEB5DEFE40E5B
:105AB000F51E821B930BDB018D939C93D701A65897
:105AC000BD4F11961C921E925D01AF0110C06E0F6A
:105AD0007F1FEC0DFD1DE20FF31F8081FB01808312
