:100000000C94CE000C94CF510C9400520C943152AD
:100010000C9462520C9493520C94C4520C94F5526A
:100020000C9426530C94F9000C94F9000C94F900EC
:100030000C94FD070C94F9000C94F9000C94AD0697
:100040000C94F9000C94F9000C94F9000C94F9004C
:100050000C94F9000C94F9000C94F9000C948806A7
:100060000C94F9000C945C560C94F9000C94F90073
:100070000C94F9000C94F9000C94F9000C94F9001C
:100080000C94F9000C94F9000C94F9000C94F9000C
:100090000C949D560C94F9000C94F9000C94D84FD4
:1000A0000C94F9000C94F9000C94F9000C94F900EC
:1000B0000C94F9000C94F9000C94F9000C94F900DC
:1000C0000C94F9000C94F9000C94F90000212427F9
:1000D0002A2D3033002225282B2E313400202326D0
:1000E000292C2F3205050505030303030101010433
:1000F00004030606060606060606010405010501B8
:1001000003020202020202010202050504040304C2
:1001100004010304070707010208101020408004AF
:1001200008102040020204081020408001028020B4
:100130004004200101020408102001408040800199
:1001400002080408800410040201000008090000ED
:10015000000000000000000000000000000000009F
:10016000000000000000000000000000000000008F
:100170000000000000000000000000000000E9088E
:10018000FA08470A971326171A191B19A5190522E9
:10019000A54E82588958985895599A5911241FBECE
:1001A000CFEFD1E2DEBFCDBF19E0A0E0B2E0EAECD4
:1001B000F8EB00E00BBF02C007900D92A433B1072B
:1001C000D9F71BBE15E1A4E3B9E001C01D92AE3B17
:1001D000B107E1F711E0CCE9D1E004C02297FE01BC
:1001E0000E94285CCE37D107C9F70E9481060C9483
:1001F000635C0C9400000F931F93CF93DF93689F71
:100200008001699F100D789F100D1124C8010E9474
:100210001701EC01009729F060E070E0A8010E944E
:100220001902CE01DF91CF911F910F910895CF93C5
:10023000DF93BC018230910510F462E070E0A09180
:10024000BC15B091BD15ED01E0E0F0E040E050E0FC
:1002500021C0888199818617970769F48A819B81DB
:10026000309719F09383828304C09093BD158093D7
:10027000BC15FE0134C06817790738F441155105E3
:1002800019F08417950708F4AC01FE018A819B815F
:100290009C01E9012097E9F641155105A9F1CA0130
:1002A000861B970B049708F4BA01E0E0F0E02AC03F
:1002B0008D919C91119784179507F9F46417750730
:1002C00081F412968D919C911397309719F0938336
:1002D000828304C09093BD158093BC15FD013296B6
:1002E0004CC0CA01861B970BFD01E80FF91F6193F3
:1002F000719302978D939C9340C0FD0182819381FD
:100300009C01D9011097A1F68091BA159091BB1567
:10031000892B41F480912609909127099093BB1570
:100320008093BA154091280950912909411551052A
:1003300041F44DB75EB78091240990912509481B7F
:10034000590B2091BA153091BB15CA01821B930B32
:100350008617970780F0AB014E5F5F4F84179507B4
:1003600050F0420F531F5093BB154093BA15F9013B
:100370006193719302C0E0E0F0E0CF01DF91CF9193
:100380000895CF93DF93009709F450C0EC012297B2
:100390001B821A82A091BC15B091BD15109709F16E
:1003A00040E050E0AC17BD0708F1BB83AA83FE0113
:1003B00021913191E20FF31FAE17BF0779F48D91B0
:1003C0009C911197280F391F2E5F3F4F3983288347
:1003D00012968D919C9113979B838A8341155105A9
:1003E00071F4D093BD15C093BC1520C012968D91A9
:1003F0009C911397AD01009711F0DC01D3CFFA0166
:10040000D383C28321913191E20FF31FCE17DF070F
:1004100069F488819981280F391F2E5F3F4FFA01B7
:10042000318320838A819B8193838283DF91CF9163
:100430000895DC0101C06D9341505040E0F70895EC
:10044000AEE0B0E0E6E2F2E00C943A5C0D891E8981
:1004500086E08C831A8309838FEF9FE79E838D83C9
:100460009E01275E3F4FCE0101966F89788DA901CD
:100470000E9444022F813885020F131FF801108259
:100480002E96E4E00C94565CABE0B0E0EAE4F2E0D7
:100490000C942C5C3C012B015A01FC011782168242
:1004A000838181FD03C06FEF7FEFC6C19AE0892E83
:1004B0001E010894211C311CF3012381F20123FD4C
:1004C000859123FF81912F01882309F4B2C18532E0
:1004D00039F423FD859123FF81912F01853229F481
:1004E00090E0B3010E943704E7CF982FFF24EE2459
:1004F0009924FFE1FF15D0F09B3269F09C3228F47B
:10050000903259F0933291F40EC09D3249F09033FD
:1005100069F441E024C052E0F52A84E0F82A28C0BA
:1005200098E0F92A25C0E0E1FE2A22C0F7FC29C0A4
:10053000892F80538A3070F4F6FE05C0989C902C69
:100540001124980E15C0E89CE02C1124E80EF0E26E
:10055000FF2A0EC09E3229F4F6FC6BC140E4F42A57
:1005600007C09C3619F450E8F52A02C0983649F4C1
:10057000F20123FD959123FF91912F01992309F019
:10058000B8CF892F8554833018F08052833038F4E7
:1005900044E050E0A40EB51E5FE359830FC09336CC
:1005A00031F0933779F0933509F056C020C0F5014A
:1005B0008081898342E050E0A40EB51E610101E014
:1005C00010E012C0F501C080D180F6FC03C06FEFCF
:1005D0007FEF02C0692D70E042E050E0A40EB51E2E
:1005E000C6010E942C048C015FE7F52214C0F501BE
:1005F000C080D180F6FC03C06FEF7FEF02C0692D91
:1006000070E042E050E0A40EB51EC6010E94210435
:100610008C0150E8F52AF3FE07C01AC080E290E092
:10062000B3010E943704EA948E2D90E00817190751
:10063000A8F30EC0F601F7FC8591F7FE81916F01DA
:1006400090E0B3010E943704E110EA940150104099
:100650000115110579F7EAC0943611F0993669F55C
:10066000F7FE08C0F501208131814281538184E089
:1006700090E00AC0F501808191819C01442737FDFB
:100680004095542F82E090E0A80EB91E9FE6F92213
:1006900057FF09C050954095309521953F4F4F4FDA
:1006A0005F4FE0E8FE2ACA01B901A1012AE030E06B
:1006B0000E946304D82ED21840C0953729F41F2D0C
:1006C0001F7E2AE030E01DC01F2D197F9F3661F08C
:1006D000903720F4983509F0ACC00FC0903739F04E
:1006E000983709F0A6C004C028E030E00AC01061C5
:1006F00014FD146020E130E004C014FD166020E118
:1007000032E017FF08C0F501608171818281938119
:1007100044E050E008C0F50180819181BC0180E097
:1007200090E042E050E0A40EB51EA1010E946304D7
:10073000D82ED2188FE7F82EF122F6FE0BC05EEF0E
:10074000F522D91438F4F4FE07C0F2FC05C08FEE90
:10075000F82202C01D2D01C0192DF4FE0DC0FE01AE
:10076000ED0DF11D8081803319F499EEF92208C056
:100770001F5FF2FE05C003C08F2D867809F01F5F52
:100780000F2DF3FC14C0F0FE0FC01E1510F09D2CB1
:100790000BC09D2C9E0C911A1E2D06C080E290E08D
:1007A000B3010E9437041F5F1E15C0F304C01E155D
:1007B00010F4E11A01C0EE2404FF0FC080E390E0C2
:1007C000B3010E94370402FF1DC001FD03C088E78A
:1007D00090E00EC088E590E00BC0802F867891F005
:1007E00001FF02C08BE201C080E2F7FC8DE290E0E5
:1007F000B3010E94370406C080E390E0B3010E9479
:1008000037049A94D914C0F3DA94F101ED0DF11D77
:10081000808190E0B3010E943704DD20A9F706C073
:1008200080E290E0B3010E943704EA94EE20C1F721
:1008300043CEF30166817781CB012B96E2E10C94E4
:10084000485CFC010590615070400110D8F780951C
:1008500090958E0F9F1F0895FC016150704001908C
:100860000110D8F7809590958E0F9F1F08950F93D4
:100870001F93CF93DF938C01EB018B8181FF1BC012
:1008800082FF0DC02E813F818C819D812817390701
:1008900064F4E881F9810193F983E88306C0E8856F
:1008A000F985802F0995892B31F48E819F810196DE
:1008B0009F838E8302C00FEF1FEFC801DF91CF919E
:1008C0001F910F910895FA01AA27283051F1203184
:1008D00081F1E8946F936E7F6E5F7F4F8F4F9F4FD4
:1008E000AF4FB1E03ED0B4E03CD0670F781F891F16
:1008F0009A1FA11D680F791F8A1F911DA11D6A0FE4
:10090000711D811D911DA11D20D009F468943F9196
:100910002AE0269F11243019305D3193DEF6CF0195
:100920000895462F4770405D4193B3E00FD0C9F75B
:10093000F6CF462F4F70405D4A3318F0495D31FDC8
:100940004052419302D0A9F7EACFB4E0A69597951B
:10095000879577956795BA95C9F7009761057105F1
:1009600008959B01AC010A2E06945795479537953B
:100970002795BA95C9F7620F731F841F951FA01D95
:1009800008950F931F9368EE73E080E090E00E945B
:10099000EA0601E919E0C80160E078E040E00E9461
:1009A00019166093460970934709809348099093FC
:1009B000490968EE73E080E090E00E94EA06C80111
:1009C00060E078E041E00E94191660934A09709354
:1009D0004B0980934C0990934D091F910F910895F5
:1009E00081E999E061E040E058E00E946E120895CC
:1009F00081E999E060E040E058E00E946E120895BD
:100A00000F931F9303E919E0C80160E072E00E94B0
:100A10009617409146095091470960914809709195
:100A20004909C8010E942318C80167E072E00E94CA
:100A3000961740914A0950914B0960914C09709169
:100A40004D09C8010E942318C8016DE072E00E94A0
:100A500096174091630950E060E070E0C8012AE019
:100A600030E00E948B171F910F9108958F929F92F3
:100A7000AF92BF92CF92DF92EF92FF920F931F93AC
:100A800098E7892E9BE0992EC4010E945E4E68EE85
:100A900073E080E090E00E94EA0660914609709160
:100AA0004709809148099091490920E030E048ECDD
:100AB00052E40E94535B7B018C0160934609709362
:100AC0004709809348099093490960914A097091B8
:100AD0004B0980914C0990914D0920E030E048ECA1
:100AE00052E40E94535B5B016C0160934A0970936E
:100AF0004B0980934C0990934D09C801B7010E949E
:100B00006C5A7B018C0160935F09F0926009C60109
:100B1000B5010E946C5A709362096093610987E67F
:100B2000C82E89E0D82EC6016E2D0E94EF08C6019E
:100B3000609161090E94EF088DB79EB70A970FB6C2
:100B4000F8949EBF0FBE8DBFEDB7FEB731960EE491
:100B500019E0ADB7BEB712961C930E9311978DE1B5
:100B600092E09383828380915F09909160099583DD
:100B70008483809161099091620997838683809133
:100B80006309808711860E9420028DB79EB70A965E
:100B90000FB6F8949EBF0FBE8DBF81E090E064EB6E
:100BA00070E00E94FB00FC0190936509809364094A
:100BB0001086E458FF4F82E5808312921092EB0C6E
:100BC000C4016AE279E00E948C3EC40162E00E94A6
:100BD000AE196091640970916509C4014CE252E05C
:100BE00020E00E94274C6091640970916509C4015E
:100BF00041E352E0980100E0EE240E94534D6091E1
:100C0000640970916509C4010E94AD49809164092D
:100C1000909165090E94C1011092650910926409C2
:100C200060ED77E080E090E00E94EA06C4010E9457
:100C3000484E1F910F91FF90EF90DF90CF90BF90A3
:100C4000AF909F908F9008950F931F930E94F80488
:100C500003E919E0C80166E372E00E942E180E94C1
:100C6000C1040E94F004C80160E472E00E942E18E2
:100C700089E699E00E940809809363090E940005B3
:100C80000E9436051F910F9108950F938BE699E00E
:100C90000E94B10E8BE699E06BE472E00E942C0C8E
:100CA00089E699E060E672E040E020E00FE10E9412
:100CB000E509809134099091350984FF0BC00E94A9
:100CC000240680913409909135098F7E90933509DF
:100CD0008093340989E699E00E9459090F9108959B
:100CE00081E999E060E00E94021388E79BE061E0FF
:100CF00041E021E00E94D21983E999E00E943C186A
:100D000008950E9440070E9470060E944506FDCF8C
:100D10001F920F920FB60F9211248F939F93AF9350
:100D2000BF938091321390913313A0913413B091FB
:100D300035130196A11DB11D809332139093331387
:100D4000A0933413B0933513BF91AF919F918F91BE
:100D50000F900FBE0F901F9018951F920F920FB615
:100D60000F9211248F939F93AF93BF93809136136B
:100D700090913713A0913813B09139130196A11DAA
:100D8000B11D8093361390933713A0933813B0930B
:100D90003913BF91AF919F918F910F900FBE0F901C
:100DA0001F90189560913213709133138091341312
:100DB0009091351327E0660F771F881F991F2A959A
:100DC000D1F72EE330E040E050E00E94E95BCA0139
:100DD000B9010895AF92BF92CF92DF92EF92FF9246
:100DE0000F931F935B016C01609132137091331369
:100DF000809134139091351347E0660F771F881F59
:100E0000991F4A95D1F72EE330E040E050E00E9470
:100E1000E95B79018A0160913213709133138091FB
:100E200034139091351337E0660F771F881F991F91
:100E30003A95D1F72EE330E040E050E00E94E95BC4
:100E40002E193F09400B510B2A153B054C055D053A
:100E500010F31F910F91FF90EF90DF90CF90BF9014
:100E6000AF900895019759F0019749F0FC01EE0FFA
:100E7000FF1F31978FB7F8943197F1F78FBF08951F
:100E8000789484B7877F84BF109232131092331303
:100E9000109234131092351384B5826084BD84B5EA
:100EA000816084BD85B5826085BD85B5816085BD65
:100EB000EEE6F0E0808181608083E1E8F0E080810F
:100EC00082608083808181608083E0E8F0E08081BF
:100ED00081608083E1EBF0E0808184608083E1E9E0
:100EE000F0E0808184608083E0EBF0E080818160CD
:100EF0008083E0E9F0E0808181608083E4E6F0E0D7
:100F000080818E7F8083ECE7F0E080818F77808323
:100F1000808180648083EAE7F0E080818460808360
:100F20008081826080838081806880831092C1008C
:100F30001092C900089590916609982B90936609C4
:100F400080FF32C0809164008E7F80936400809126
:100F50007C008F7780937C0080917C0080648093FC
:100F60007C0080917A00846080937A0080917A007E
:100F7000826080937A0080917A00806880937A0002
:100F8000809164008F7780936400809164008B7FF0
:100F900080936400809164008D7F809364008091D1
:100FA00065008E7F809365000895282F209590918D
:100FB000660992239093660980FF1EC080917A0093
:100FC0008F7780937A0080916400816080936400C1
:100FD00080916400806880936400809164008460E4
:100FE00080936400809164008260809364008091AB
:100FF000650081608093650008951F920F920FB67F
:101000000F920BB60F9211242F933F934F935F9340
:101010006F937F938F939F93AF93BF93EF93FF93C0
:10102000F89481E080932C09E0E6F0E0808180680C
:10103000808380818F7B808383E060E00E94520800
:101040007894FF91EF91BF91AF919F918F917F9194
:101050006F915F914F913F912F910F900BBE0F9029
:101060000FBE0F901F901895282F30E0C901895EA0
:101070009E4FFC0194912C513F4FF901849188239C
:1010800081F0E82FF0E0E453FF4FE491F0E06623B5
:1010900029F4808190958923808308958081892B0C
:1010A00080830895482F50E0CA01865B9E4FFC0163
:1010B0002491CA01895E9E4FFC0194914C515F4F6F
:1010C000FA0134913323C1F1222331F1233021F489
:1010D000809180008F7705C0243031F480918000AA
:1010E0008F7D8093800018C0213019F484B58F77EC
:1010F00004C0223021F484B58F7D84BD0DC026301C
:1011000021F48091B0008F7705C0273029F48091B9
:10111000B0008F7D8093B000E32FF0E0EC52FF4FE2
:10112000E491F0E0662329F48081909589238083FF
:1011300008958081892B80830895482F50E0CA014B
:10114000865B9E4FFC012491CA01895E9E4FFC0183
:1011500094914C515F4FFA013491332319F420E0FC
:1011600030E035C0222331F1233021F4809180001A
:101170008F7705C0243031F4809180008F7D80937B
:10118000800018C0213019F484B58F7704C0223054
:1011900021F484B58F7D84BD0DC0263021F480916B
:1011A000B0008F7705C0273029F48091B0008F7D83
:1011B0008093B000E32FF0E0E452FF4FE491F0E0C1
:1011C000808120E030E0892311F021E030E0C90186
:1011D00008951092670981E08093680908951F932C
:1011E000162F8DE00E94DE568AE0612F0E94DE56A7
:1011F0001F910895089589E261E00E94340888E211
:1012000061E00E94340881E991E10E94A64E0895B0
:10121000EF92FF920F931F9389E161E00E943408DF
:1012200089E161E00E94520880E00E94CE55AA2721
:1012300097FDA095BA2FBC01CD010E949F5A7B015A
:101240008C0120E030E040E054E40E94005A882302
:101250005CF40F2EF0E0EF2EF0E0FF2EF0E00F2F09
:10126000F0E01F2FF02D16C0C801B70120E030E0DC
:1012700040E054E40E949B5920E030E04BE053E40E
:101280000E94045A20E030E048EC52E40E94535B94
:101290007B018C0189E160E00E945208C801B7011E
:1012A0000E94715ADC01CB011F910F91FF90EF90CA
:1012B0000895809134099091350982FF04C081E836
:1012C00092E10E941D5980913409909135098091D5
:1012D00034099091350984FF04C08BE699E00E949F
:1012E0006C0A809134099091350993FF04C080E025
:1012F00098E00E949D538091340990913509809126
:1013000034099091350908951F93162F80917A0022
:101310008F7780937A0081E261E00E94340881E255
:1013200060E00E9452088BE161E00E9434088BE18A
:1013300060E00E94520810FF10C08AE161E00E9444
:1013400034088AE160E00E94520888E161E00E946E
:10135000340888E160E00E94520811FF05C086E76A
:101360009BE063E00E94841912FF13C081E00E9499
:10137000A7578FE261E00E9434088FE260E00E948C
:10138000520883E261E00E94340883E260E00E9438
:10139000520814FF0EC08091821280FD0AC081FDA8
:1013A00008C080E361E00E94340880E360E00E94AE
:1013B000520813FF08C089E161E00E94340889E106
:1013C00060E00E9452081F910895EF92FF920F93E0
:1013D0007C018BE699E00E94BC0D8BE699E00E94AF
:1013E0007B0EC701602F0E94840983B7817F8460D0
:1013F00083BF83B7816083BF83B7816083BF8895D4
:1014000083B78E7F83BF83B78E7F83BF80917A003F
:10141000806880937A008BE699E00E94B10E8BE69B
:1014200099E00E946C0A04FF04C08BE699E00E94D8
:10143000880E0F91FF90EF900895FC01138A148A93
:10144000158A168A178A108E118E128E138E148E9C
:10145000158E168E178E10A211A212A213A214A21C
:101460000895262F862F6AE00E94B65B492F30E050
:10147000C901841B91096AE070E00E94D65BE4E038
:10148000660F771FEA95E1F7842F862B089508955C
:10149000DF92EF92FF920F931F938C01D62EA1E95A
:1014A000EA2EA1E1FA2EC70168E670E00E94844EA0
:1014B000C7016D2D0E94B04E0D0D111DC701F80121
:1014C00060810E94B04EC7010E94D74E1F910F91BC
:1014D000FF90EF90DF90089580917A098C7F809340
:1014E0007A098BE699E06FE00E94480A08950F930D
:1014F0001F938C0180E190E00E945753C8010E9425
:101500006C0A1F910F9108951F93CF93DF93EC0105
:10151000142F613009F08CC08E858D7F85608E8799
:10152000CE016EE00E94480A8F858C7F8F87CE01A6
:101530006FE00E94480A133009F452C0143030F4AE
:10154000113031F18F811230D8F50AC0153009F40D
:1015500054C0153008F44EC0163009F0DDC0D2C0BA
:101560008F778F83CE0167E00E94480A88858F7746
:101570008887CE0168E00E94480A89858F7789872D
:10158000CE0169E00E94480A8A858F7780644CC04A
:101590008F818F778F83CE0167E00E94480A88850C
:1015A0008F778887CE0168E00E94480A89858F7707
:1015B0008987CE0169E00E94480A8A858F7334C00A
:1015C0008F778F83CE0167E00E94480A88858F77E6
:1015D0008887CE0168E00E94480A89858F771DC000
:1015E0008F818F778F83CE0167E00E94480A8885BC
:1015F0008F770CC08F818F7702C08F8180688F8337
:10160000CE0167E00E94480A888580688887CE01FD
:1016100068E00E94480A898580688987CE0169E070
:101620000E94480A8A8580688A87CE016AE067C07E
:10163000623009F071C08E858E7F86608E87CE0104
:101640006EE00E94480A8F858C7F8F87CE016FE005
:101650000E94480A123099F1133030F4112361F0DE
:10166000113009F059C01AC01430B1F1143088F1AA
:10167000153009F051C046C08B858F778B87CE011E
:101680006BE00E94480A8C858F778C87CE016CE0D6
:101690000E94480A8D858F7780642EC08B858F7756
:1016A0008B87CE016BE00E94480A8C858F778C87F0
:1016B000CE016CE00E94480A8D858F731DC08B851A
:1016C0008F778B87CE016BE00E94480A8C858F77DD
:1016D0000CC08B858F7702C08B8580688B87CE018D
:1016E0006BE00E94480A8C8580688C87CE016CE094
:1016F0000E94480A8D8580688D87CE016DE00E942A
:10170000480A0AC08E85887F8E87CE016EE00E94CF
:10171000480ACE010E94770A80E190E00E949D5322
:10172000DF91CF911F910895DF92EF92FF920F9377
:101730001F938C0141E9E42E41E1F42EC70168E6D4
:1017400070E00E94844EC70167E070E00E94D44EB2
:10175000C801F801628D0E94310A3FE7D32ED822DA
:10176000F801D782C801638D0E94310A8F77F80192
:101770008087C801648D0E94310A8F77F8018187C4
:10178000C801658D0E94310A8F73F8018287C701F5
:101790006D2D0E94B04EC701F80160850E94B04EC9
:1017A000C701F80161850E94B04EC701F80162854A
:1017B0000E94B04EC7010E94D74E1F910F91FF901B
:1017C000EF90DF9008950F931F93CF93DF93EC0179
:1017D00081E991E168E670E00E94844E81E991E13F
:1017E00060E070E00E94D44ECE01688D0E94310A04
:1017F0008883CE016F890E94310A8983CE016E8968
:101800000E94310A8A838D898B83CE01698D0E9463
:10181000310A8C83CE016C890E94310A8D83CE01FE
:101820006B890E94310A8E8300E010E0FE01E00F18
:10183000F11F81E991E160810E94B04E0F5F1F4F5F
:101840000730110599F781E991E10E94D74EDF91A8
:10185000CF911F910F910895DC01FB01218120534D
:10186000808180533AE0839FC0011124280F539652
:101870002C9353972481205383818053839FC001ED
:101880001124280F54962C93549727812053868136
:101890008053839FC0011124280F59962C93599788
:1018A0002285205381858053839FC0011124280FF6
:1018B00055962C9355972585205384858053839F77
:1018C000C0011124280F56962C9356972089205337
:1018D00087858053839FC0011124280F57962C932E
:1018E00057972389205382898053839FC0011124F5
:1018F000280F58962C935897CD010E94E30B08951A
:10190000CF92DF92EF92FF921F93CF93DF937C01F0
:10191000162F81E991E168E670E00E94844E81E92A
:1019200091E160E070E00E94D44E81E991E10E9473
:10193000D74E81E991E168E670E042E150E00E9413
:10194000F84EC0E0D0E0C12EDD241AE009C181E9E3
:1019500091E10E948E4E882309F402C181E991E150
:101960000E94944E282FF701EC0FFD1F8083C63094
:10197000D10509F482C0C730D105B8F4C230D10511
:1019800009F44EC0C330D10538F4209769F1C13055
:10199000D10509F0E4C036C0C430D10509F451C006
:1019A000C530D10508F05BC049C0CA30D10509F483
:1019B0009BC0CB30D10558F4C830D10509F478C0AC
:1019C00090E02F70C930D10508F081C064C0CC30E0
:1019D000D10509F4A7C0CC30D10508F494C0CD30AE
:1019E000D10509F0BCC0ADC090E0E4E095958795C5
:1019F000EA95E1F7819FC00111242F70280FF701AC
:101A0000208FADC090E074E0959587957A95E1F7C9
:101A1000819FC00111242F70280FF701278B9FC0D1
:101A200090E064E0959587956A95E1F7819FC00104
:101A300011242F70280FF701268B91C0F701858B99
:101A40008EC090E054E0959587955A95E1F7819F77
:101A5000C00111242F70280FF701218F80C090E062
:101A600044E0959587954A95E1F7819FC00111243F
:101A70002F70280FF701248B72C090E034E0959509
:101A800087953A95E1F7819FC00111242F70280FA7
:101A9000F701238B64C0B4E095958795BA95E1F77B
:101AA0008770819FC0011124280FF701228F57C032
:101AB00090E0A4E095958795AA95E1F78770819FBE
:101AC000C00111242F70280FF701238F48C0F4E0C4
:101AD00095958795FA95E1F78370819FC001112450
:101AE000280FF701248F3BC090E0E4E0959587959F
:101AF000EA95E1F78370819FC00111242F70280FB0
:101B0000F701258F2CC090E074E0959587957A9524
:101B1000E1F78770819FC00111242F70280FF70112
:101B2000268F1DC090E064E0959587956A95E1F752
:101B30008370819FC00111242F70280FF701278F18
:101B40000EC090E054E0959587955A95E1F7837023
:101B5000819FC00111242F70280FF70120A3219627
:101B6000CC16DD0608F0F3CEDF91CF911F91FF90E8
:101B7000EF90DF90CF9008951F93CF93DF93EC0108
:101B8000FB01122F21812053808180533AE0839FF3
:101B9000C0011124280F2D8F24812053838180536D
:101BA000839FC0011124280F2C8F27812053868109
:101BB0008053839FC0011124280F2B8F228520532F
:101BC00081858053839FC0011124280F2A8F4423CD
:101BD00009F05BC0CE0166E00E94800C988D8A8D72
:101BE000980F9A8F9C3328F09C539A8F8B8D8F5F20
:101BF0008B8F9F898B8D980F9B8F9C3328F09C53E4
:101C00009B8F8C8D8F5F8C8F9E898C8D980F9C8F76
:101C1000983128F098519C8F8D8D8F5F8D8F2D8DF1
:101C2000112339F48D89820F8D8F883070F18750A0
:101C30002BC0998D920F9D8F8C89813051F083300C
:101C400041F0853031F0873021F0883011F08C3050
:101C500021F4903210F09F519D8F8C89843041F097
:101C6000863031F0893021F08A3011F08B3029F440
:101C70008D8D8F3110F08E518D8F8C89823029F4AB
:101C80008D8D8D3110F08C518D8F8BE699E00E94F7
:101C9000940B8BE699E061E0412F0E94840ADF916A
:101CA000CF911F9108950F931F93CF93DF93EC0172
:101CB000042F6DA380E361E00E9434081DA1113060
:101CC00019F0103199F40DC080E361E00E945208D0
:101CD000013019F482E08A8B09C0002339F41A8B91
:101CE00005C080E360E00E9452081A8ADF91CF911C
:101CF0001F910F91089580919111882341F0809157
:101D00008512882321F489E699E00E94FB08089552
:101D10000F931F938C010E947B0EC80160E140E08D
:101D20000E94530E1F910F910895CF93DF93EC0102
:101D300061E040E00E94530E80919111882321F4CC
:101D400081E991E10E94FB4ECE010E946C0ACE0116
:101D50000E941D0ACE016DE00E94800CDF91CF91A0
:101D600008950E94950E0895AF92BF92CF92DF9290
:101D7000EF92FF920F931F939B014115510531F193
:101D80004130510529F0E0E070E080E060E049C0BA
:101D9000B901882777FD8095982F0E949F5A7B0173
:101DA0008C012DEB32E546E15DE30E94535B25ECAF
:101DB0003EEF42E050E40E949B595B016C01C80178
:101DC000B70126EF34E246ED55EB1DC0B901882777
:101DD00077FD8095982F0E949F5A7B018C012DEBF7
:101DE00032E546E15FE30E94535B25EC3EEF42E0C3
:101DF00050E40E949B595B016C01C801B7012BE3C1
:101E000035E246ED59EB0E94535BA80197010E9411
:101E1000535B9B01AC01C601B5010E949C59E62FA2
:101E2000692F2E2F372F482F562FB901CA011F9126
:101E30000F91FF90EF90DF90CF90BF90AF900895FB
:101E4000AF92BF92CF92DF92EF92FF920F931F93C8
:101E5000FB01142F8081282F30E066E0359527950F
:101E60006A95E1F751E0C52ED12CC222D32290E031
:101E7000A0E0B0E08F739070A070B0704427582F2E
:101E8000692F7A2F8181480F511D611D711D92E0CC
:101E9000440F551F661F771F9A95D1F7828182954F
:101EA000869586958370480F511D611D711D35956E
:101EB00027952130310579F481E0C816D104E1F489
:101EC0000F2EF0E0AF2EF0E0BF2EF0E0CF2EF0E4CA
:101ED000DF2EF02D23C0CD2859F40F2EF0E0AF2EC9
:101EE000F0E0BF2EF0E0CF2EF0ECDF2EF02D16C08C
:101EF0004F5F5F4F60407040CB01BA010E949F5A14
:101F000020E030E040EC5FE30E94535B20E03FEFD5
:101F10004FE757E40E94045A5B016C01113009F04D
:101F20004FC0C601B50120E030E44BE754E40E9405
:101F3000535B20E030E44BEF54E40E94535B2AE60D
:101F40003FE64BE45AE40E949C597B018C01C60198
:101F5000B50120E030E44BEF54E40E94535B9B0159
:101F6000AC0160E078E48FE495E40E949B599B010A
:101F7000AC01C801B7010E94045A28E431E64AE7DF
:101F800054E40E949B592EEA3FEF48EA54E40E9431
:101F9000045A28EB3EEC4AEB54E40E94535B2FE8D2
:101FA00032E049E754E40E949C5920E030E04AE7DF
:101FB00054E40E949B5926E931E24AE750E40EC0FE
:101FC0001123A1F4C601B50120E030EE4BE256E446
:101FD0000E94535B20E030E04AE754E40E94045A38
:101FE0009B01AC01832F942F752F00C0262F382F13
:101FF000492F572FB901CA011F910F91FF90EF9000
:10200000DF90CF90BF90AF900895882777FD80959F
:10201000982F0E949F5A20E030E44CE955E40E943A
:10202000535B20E030EC4FE754E40E94045A20E078
:1020300030E047E853E40E949C5920E030E44CE94A
:1020400055E40E94045A2CE53FE842EC5DE30E940F
:102050009C5920EE3DE240E15CE30E94045A089561
:10206000EF92FF920F931F93CF93DF93EC017A01CE
:102070008B01CB01BA0120E030E040E85EE30E9432
:10208000005A88231CF480E190E04EC1C801B701DA
:1020900020E030E040E85EE30E944F5B88236CF074
:1020A000C801B70129E23CE54FE85EE30E94005A0F
:1020B00088231CF484E090E037C1C801B70129E20D
:1020C0003CE54FE85EE30E944F5B88236CF0C8015B
:1020D000B70123E333E343EB5EE30E94005A882316
:1020E0001CF488E090E020C1C801B70123E333E38A
:1020F00043EB5EE30E944F5B88236CF0C801B7019D
:1021000020E030E040E05FE30E94005A88231CF4A6
:1021100080E490E009C1C801B70120E030E040E070
:102120005FE30E944F5B88236CF0C801B70126E68D
:1021300036E646E25FE30E94005A88231CF480E200
:1021400090E0F2C0C801B70126E636E646E25FE35A
:102150000E944F5B88236CF0C801B7012AE939E976
:1021600049E55FE30E94005A88231CF480E091E077
:10217000DBC0C801B7012AE939E949E55FE30E94FC
:102180004F5B88236CF0C801B7012DEC3CEC4CE8A8
:102190005FE30E94005A88231CF480E890E0C4C0EA
:1021A000C801B7012DEC3CEC4CE85FE30E944F5BAB
:1021B00088236CF0C801B70127ED33EA40EB5FE3F9
:1021C0000E94005A88231CF481E090E0ADC0C80151
:1021D000B70127ED33EA40EB5FE30E944F5B8823B2
:1021E0006CF0C801B7012DEC3CEC4CEC5FE30E94B5
:1021F000005A88231CF482E090E096C0C801B70121
:102200002DEC3CEC4CEC5FE30E944F5B88236CF0C0
:10221000C801B70128E431EE4AEF5FE30E94005A9B
:1022200088231CF480E094E07FC0C801B70128E453
:1022300031EE4AEF5FE30E944F5B88236CF0C801E8
:10224000B7012AE939E949E050E40E94005A88239D
:102250001CF480E092E068C0C801B7012AE939E9BE
:1022600049E050E40E944F5B88236CF0C801B7013D
:1022700026E636E646E150E40E94005A88231CF424
:1022800080E090E451C0C801B70126E636E646E199
:1022900050E40E944F5B88236CF0C801B70126E62A
:1022A00036E646E250E40E94005A88231CF4198264
:1022B00018823CC0C801B70126E636E646E250E483
:1022C0000E944F5B88236CF0C801B70123E333E31E
:1022D00043E350E40E94005A88231CF480E090E11C
:1022E00023C0C801B70123E333E343E350E40E9472
:1022F0004F5B88236CF0C801B70126E636E646E45A
:1023000050E40E94005A88231CF480E098E00CC03E
:10231000C801B70126E636E646E450E40E944F5B6A
:10232000882324F080E090E299838883DF91CF9125
:102330001F910F91FF90EF900895882777FD80956A
:10234000982F0E949F5A20E030E44CE955E40E9407
:10235000535B20E030EC4FE754E40E94045A20E045
:1023600030E048E454E40E949B5920E030E048EF1C
:1023700051E40E94045A0895882777FD8095982F8C
:102380000E949F5A20E030E44EE455E40E94535BE3
:1023900020E030EC4FE754E40E94045A20E030E0A3
:1023A0004AEF53E40E949B5920E030E040E251E4C0
:1023B0000E94045A0895CF92DF92EF92FF920F93FA
:1023C0001F93CF93DF930E94D2066B017C01C0E084
:1023D000D0E000E010E00AC088E00E949D080130D3
:1023E000110519F4009709F421968C010E94D20678
:1023F0006C197D098E099F09695B7B408040904084
:1024000058F364E670E080E090E00E94EA06CE01B6
:10241000DF91CF911F910F91FF90EF90DF90CF90C0
:102420000895BF92CF92DF92EF92FF920F931F9386
:10243000CF93DF93162F8FE060E00E94340881E194
:1024400060E00E94340883E160E00E9434088AE082
:1024500060E00E945208143049F0183051F01230F8
:1024600019F4FFE0BF2E07C0BB2405C0E3E1BE2E78
:1024700002C071E1B72E0E94D2066B017C01C0E060
:10248000D0E000E010E08B2D0E949D08219739F4E8
:10249000009729F40F5F1F4FC0E0D0E001C0EC01AE
:1024A00087E0003D18077CF30E94D2066C197D0975
:1024B0008E099F090E949D5A9B01AC0160E074E265
:1024C00084EF99E40E94045ADF91CF911F910F91FC
:1024D000FF90EF90DF90CF90BF900895662309F0B2
:1024E00046C04034510509F43FC041345105C8F499
:1024F00042305105A9F14330510540F441155105D1
:1025000089F14130510509F07CC02CC0483051059B
:1025100039F14032510541F14430510509F071C0A3
:102520001FC082E040305807F9F082E04130580780
:1025300040F440385105C1F04050514009F061C0AD
:1025400013C088E04030580779F080E140305807E8
:1025500029F04050544009F054C006C084E005C042
:1025600082E003C08EE001C087E061E043C06130DB
:1025700009F047C040345105D9F141345105B8F450
:102580004230510589F14330510538F44115510568
:1025900069F141305105A9F529C04830510521F1B3
:1025A0004032510529F14430510559F51DC082E0F2
:1025B00040305807E9F082E04130580738F440389D
:1025C0005105B1F040505140E1F412C088E0403074
:1025D000580799F080E14030580721F040505440AE
:1025E00081F406C084E005C082E003C08EE001C033
:1025F00087E060E00E945208089587E060E00E9452
:10260000520808951F93162F68EE73E080E090E063
:102610000E94EA06112319F0113011F515C08AE164
:1026200061E00E94520888E161E00E9452088091B6
:102630007D09882331F48BE699E061E041E00E9456
:10264000530E87E061E00AC08AE160E00E94520810
:1026500088E160E00E94520887E060E00E94520832
:102660001F91089582E360E00E94340882E361E0F4
:102670000E94520885E061E00E94340884E061E035
:102680000E94340886E061E00E94340887E061E03F
:102690000E94340889E060E00E9434088AE061E02A
:1026A0000E94340888E060E00E94340882E061E023
:1026B0000E9434088EE061E00E9434088AE161E003
:1026C0000E94340888E161E00E9434088FE060E0F5
:1026D0000E94340881E160E00E94340883E160E0F8
:1026E0000E94340885E060E00E94520884E060E0C7
:1026F0000E94520886E060E00E94520887E060E095
:102700000E9452088AE060E00E94520882E060E085
:102710000E9452088EE060E00E9452088AE160E068
:102720000E94520888E160E00E945208089581E901
:1027300099E00E9432130895CF92DF92FF920F9397
:102740001F93CF93DF936C01F62E662319F403E0F9
:10275000F02E05C081E0681711F415E0F12E86E037
:1027600061E00E94340885E061E00E94340886E060
:1027700061E00E94520885E061E00E94520881E019
:1027800090E00E94320786E060E00E94520885E0F7
:1027900060E00E94520881E090E00E94320785E0EC
:1027A00061E00E94520886E061E00E94520881E0E8
:1027B00090E00E94320785E060E00E94520886E0C7
:1027C00065E041E02F2D0E94415885E061E00E94C4
:1027D000520886E060E00E94340886E00E949D086E
:1027E0000197D9F385E060E00E94520886E00E94DC
:1027F0009D08892BD9F386E00E949D080197D9F3A3
:1028000000E010E0C0E0D0E085E061E00E94520806
:10281000000F111F86E00E949D08080F191F85E018
:1028200060E00E9452082196C830D10569F786E021
:102830000E949D08892BD9F386E061E00E9434084C
:1028400086E060E00E94520881E090E00E9432073A
:1028500085E061E00E94520880E991E00E94320721
:1028600085E060E00E94520886E060E00E94340843
:10287000C0E0D0E085E061E00E945208000F111F27
:1028800086E00E949D08080F191F85E060E00E9405
:1028900052082196C830D10569F786E061E00E94B0
:1028A000340886E061E00E94520885E061E00E9401
:1028B000520880E991E00E94320785E060E00E94C2
:1028C000520886E060E00E94520883E0F816A1F406
:1028D000B801882777FD8095982F0E949F5A2AE09B
:1028E00037ED43E25CE30E94535B2DEC3CEC4EE1A0
:1028F00052E40E949B590AC085E0F81639F4C601DB
:10290000B80141E050E00E94B40E00C0DF91CF91C9
:102910001F910F91FF90DF90CF9008950F931F9319
:10292000DF93CF9300D0CDB7DEB78091911188238C
:1029300021F481E991E10E94FB4E19821A8264E63A
:1029400070E080E090E00E94EA0662E370E080E0E0
:1029500090E00E94EA0681E991E164E170E042E0E2
:1029600050E00E94F84E8E010F5F1F4F07C081E9B3
:1029700091E10E94944EF80181938F0181E991E1E8
:102980000E948E4E882399F780919111882391F0AF
:1029900080918512882371F480917D09813051F0F6
:1029A00089E699E00E94FB088BE699E060E141E04E
:1029B0000E94530E298130E040E050E0542F432F15
:1029C000322F22278A81280F311D411D511DCA0136
:1029D000B901E3E0660F771F881F991FEA95D1F7C9
:1029E000620F731F841F951F695070488440904088
:1029F0000E949F5A20E03FEF4FE757E40E94045A9D
:102A00000F900F90CF91DF911F910F910895EF924A
:102A1000FF920F931F93DF93CF9300D00F92CDB708
:102A2000DEB77C01DE011196EDE2F9E083E0019072
:102A30000D928150E1F780919111882321F481E971
:102A400091E10E94FB4E64E670E080E090E00E941D
:102A5000EA0664E670E080E090E00E94EA0664E640
:102A600070E080E090E00E94EA0681E991E166E191
:102A700070E00E94844E81E991E160EA0E94B04ECC
:102A800081E991E165E570E00E94D44E81E991E130
:102A90000E94D74E6CE271E080E090E00E94EA066E
:102AA00081E991E166E170E043E050E00E94F84E78
:102AB0008E010F5F1F4F07C081E991E10E94944E84
:102AC000F80181938F0181E991E10E948E4E882364
:102AD00099F780919111882391F080918512882334
:102AE00071F480917D09813051F089E699E00E946E
:102AF000FB088BE699E060E141E00E94530EC701BC
:102B0000BE016F5F7F4F41E00E94200F0F900F903A
:102B10000F90CF91DF911F910F91FF90EF9008954B
:102B2000EF92FF920F931F93DF93CF9300D00F92FA
:102B3000CDB7DEB77C01DE011196E0E3F9E083E07A
:102B400001900D928150E1F780919111882321F439
:102B500081E991E10E94FB4E64E670E080E090E044
:102B60000E94EA0664E670E080E090E00E94EA06D7
:102B700064E670E080E090E00E94EA0681E991E17D
:102B800066E170E00E94844E81E991E161EA0E9471
:102B9000B04E81E991E165E570E00E94D44E81E993
:102BA00091E10E94D74E6CE271E080E090E00E94DB
:102BB000EA0681E991E166E170E043E050E00E94BD
:102BC000F84E8E010F5F1F4F07C081E991E10E940F
:102BD000944EF80181938F0181E991E10E948E4E1C
:102BE000882399F780919111882391F08091851223
:102BF000882371F480917D09813051F089E699E054
:102C00000E94FB088BE699E060E141E00E94530ED0
:102C1000C701BE016F5F7F4F40E00E94200F0F9001
:102C20000F900F90CF91DF911F910F91FF90EF9038
:102C30000895EF92FF920F931F93CF93DF93EC01D0
:102C40006032710509F48FC061327105E0F46230C1
:102C5000710509F445C06330710548F461157105CB
:102C600009F462C06130710509F0E3C041C0683009
:102C70007105E1F16031710509F4C6C06430710578
:102C800009F0D7C02FC082E06030780709F498C0FF
:102C900082E06130780770F46038710509F46AC029
:102CA00081E06030780709F47FC06034710509F075
:102CB000C0C05CC088E06030780709F497C080E14C
:102CC0006030780729F06050744009F0B2C08AC0C3
:102CD00083E00E94CE55BC01CE010E9405108CC03D
:102CE00062E001C064E00E94111286C068E0FBCF80
:102CF00087E00E94CE55A0E0B0E0BC01CD010E946B
:102D00009D5A23E333E343E550E40E94535B2AE9F1
:102D100039E949E150E40E94535B2EE135E845EF83
:102D200051E40E94045A68C085E00E94CE55A0E09C
:102D3000B0E0BC01CD010E949D5A23E333E343E59B
:102D400050E40E94535B20E030EC4FE754E40E94D3
:102D5000045A9B01AC017B018A01CE01A901B80193
:102D60000E9430106AC00E94901546C0CE010E9499
:102D7000071542C08AE061E00E94520886E00E9486
:102D8000CE55A0E0B0E0BC01CD010E949D5A23E3E6
:102D900033E343E550E40E94535B20E030EC4FE71F
:102DA00054E40E94045A17C08AE061E00E9452086D
:102DB00084E00E94CE55BC01CE010E94BC110BC024
:102DC0008AE061E00E94520882E00E94CE55BC0178
:102DD000CE010E949D117B018C018AE060E00E947F
:102DE00052082BC0CE010E948E1406C0442339F431
:102DF000CE0160E00E949C137B018C011EC041301B
:102E0000C1F4CE0161E0F6CF0E94DB11A0E0B0E09A
:102E1000BC01CD010E949D5A24E83DE04FE85EE3ED
:102E20000E94535B20E030E040EA51E40E94535B93
:102E3000E3CFEE24FF2400E010E0B701C801DF91EA
:102E4000CF911F910F91FF90EF90089510929309E9
:102E500008950F93FC01CB01BA012AE030E040E075
:102E600050E000810E9405570F9108950F931F9322
:102E70008C018DE0F80160810E94DE568AE0F80145
:102E800060810E94DE561F910F910895EF92FF928C
:102E90000F931F93CF93DF93EC017A018B0177FFA0
:102EA0000CC08DE268810E94DE5610950095F0946A
:102EB000E094E11CF11C011D111DC801B7012AE0BD
:102EC00030E040E050E008810E940557DF91CF914B
:102ED0001F910F91FF90EF9008950F931F93FC01A6
:102EE000DA018B012115310529F4842F60810E94BC
:102EF000DE560EC02A30310519F40E94461708C06C
:102F000030E040E050E0BD01C80100810E9405575B
:102F10001F910F9108950F931F938C010E946D17BD
:102F2000C8010E9436171F910F910895FC01CB0133
:102F300060810E94EF5608959F92AF92BF92CF9208
:102F4000DF92EF92FF920F931F93CF93DF93EC01E9
:102F50007A018B01922ECB01BA0120E030E040E0F3
:102F600050E00E94005A882344F48DE268810E9458
:102F7000DE5617FB109517F9109520E030E040E081
:102F80005FE3AA240BC0CA01B90120E030E040E2AF
:102F900051E40E94045A9B01AC01A394A91498F334
:102FA000C801B7010E949C595B016C010E94715AD3
:102FB0007B018C01CE01B801A7010E94291799203D
:102FC00029F08CE692E068810E94EF56C801B701B3
:102FD0000E949D5A9B01AC01C601B5010E949B59FC
:102FE00020C020E030E040E251E40E94535B7B01CE
:102FF0008C010E946C5A5B016C01CC24B7FCC0941C
:10300000DC2CCE01B601A5010E944617C601B50110
:103010000E949F5A9B01AC01C801B7010E949B59B5
:103020009A949920F1F6DF91CF911F910F91FF9023
:10303000EF90DF90CF90BF90AF909F9008952AE0DF
:103040000E949C1708950F931F938C010E941F18D4
:10305000C8010E9436171F910F9108950F931F9377
:103060008C01CB01F80160810E94EF56C8010E94DB
:1030700036171F910F910895FC0160E076E980E01A
:1030800090E040810E94C5570895FB0120E030E0A8
:1030900002C02F5F3F4F81918823D9F7C90108955E
:1030A000FB019081892F80538A3038F4292F3327F0
:1030B00027FD3095205330400DC0892F8154863034
:1030C00018F020E030E007C0292F332727FD309586
:1030D0002753304031966081862F80538A3030F4F8
:1030E000772767FD7095605370400CC0862F815420
:1030F000863018F060E070E005C0772767FD7095B6
:1031000067537040A4E0220F331FAA95E1F7862F82
:10311000820F08956833A1F1693380F4643341F17B
:10312000653338F4623301F1633300F56133D1F470
:1031300017C0663309F1673308F51CC0633441F1E9
:10314000643438F4613401F1623400F5693351F4C8
:1031500019C0653409F16534E8F0663419F41EC00D
:1031600081E01DC080E01BC082E019C083E017C071
:1031700084E015C085E013C086E011C087E00FC071
:1031800088E00DC089E00BC08AE009C08BE007C071
:103190008CE005C08DE003C08EE001C08FE04733B6
:1031A000A1F1483380F4433341F1443338F44133DF
:1031B000F1F0423300F54033E1F51BC0453309F12E
:1031C000463308F51CC0423441F1433438F44933E6
:1031D00001F14933E0F0413461F51DC0443409F197
:1031E0004434E8F04534F9F04634F9F0089591E0BC
:1031F0001DC090E01BC092E019C093E017C094E09E
:1032000015C095E013C096E011C097E00FC098E09C
:103210000DC099E00BC09AE009C09BE007C09CE09C
:1032200005C09DE003C09EE001C09FE08295807FC5
:10323000890F089508951092760B0895EF92FF92EA
:103240000F931F93CF93DF93EC017A018B0177FFEC
:103250000CC08DE268810E94DE5610950095F094B6
:10326000E094E11CF11C011D111DC801B7012AE009
:1032700030E040E050E008810E940557DF91CF9197
:103280001F910F91FF90EF9008950F931F93FC01F2
:10329000DA018B012115310529F4842F60810E9408
:1032A000DE560EC02A30310519F40E941E1908C0DE
:1032B00030E040E050E0BD01C80100810E940557A8
:1032C0001F910F910895FC0180810E944856089536
:1032D000FC0180810E940D560895FC0180810E94AE
:1032E000E9550895FC0180810E94A7570895FC01CB
:1032F00060E076E980E090E040810E94C55786E179
:1033000061E00E9434080895CF93DF93EC01698354
:10331000623099F0633049F06130A1F40E9477196E
:1033200086E161E00E9452080DC086E160E00E94E3
:10333000520888810E94A75705C086E69EE061E09A
:103340000E94054CDF91CF9108951092550E109276
:10335000560E1092590E10925B0E08951F93CF9344
:10336000DF93EC01162FC652DE4F82E08883CA5DE0
:10337000D140CE016DE073E0412F0E94A34BCE01FE
:103380006DE073E00E945B1ACE016DE073E00E9475
:10339000673D882319F4C951DD4F1883DF91CF9120
:1033A0001F9108950F931F938C010E5B1D4FF80121
:1033B000619341938F0120830C5F1140F8011082CB
:1033C000055F1F4FF8011082045F1F4FF801108244
:1033D0000E511F4FF80110820D51104083E1F8018A
:1033E00081938F0188E880830E5F1F4FF80111924F
:1033F0008F011082095E1F4F89E1F80180830D5F04
:103400001F4F8FE1F80181938F018EEF80830A5D5A
:103410001F4FF801119284E081938F0188E280832D
:10342000095F1F4FF80110820D581E4FF8011192CD
:10343000119211928CE28193119211921192119238
:103440008F011082075A1040F801118210820C5C23
:103450001F4FF80111921192119211921192119233
:1034600011921192119211928F0110821182128287
:103470001382075D1F4FF80111928F011082055DC5
:10348000104092E0F80190830A521F4F81E0F8014A
:103490008083055D1040F801919391938F01908393
:1034A0000C5D1140C8010E944623C8010E94EC2116
:1034B0001F910F9108950F931F93CF93DF93DC011A
:1034C0008B01EC01C658DD4F1982188240E0BE0125
:1034D00006C04F5F2F5F3F4FFB0131832083FB010D
:1034E00020813181F801E20FF31F8081882389F761
:1034F000469583E090E09983888390E0ED01C6587B
:10350000DD4F50E00BC0FD01E20FF31FE857FD4F08
:103510008081980F2F5F3F4F39832883288139811D
:103520002417350780F3892F8095A40FB51FA9575D
:10353000BD4F8C93DF91CF911F910F910895AF9262
:10354000BF92CF92DF92EF92FF920F931F93CF9390
:10355000DF937C018B0106551F4FD8018C910A5ACD
:103560001040F801E855FF4F813009F024C1C22E08
:10357000DD24DA01AC0DBD1D83E28C9380818130A6
:1035800009F446C0813020F0823009F038C2AAC068
:1035900011961C92119701571F4FF80181918F01CD
:1035A00012968C93129780810059104013968C9339
:1035B0001397F701E658FD4F11821082EF01FCE7E7
:1035C000CF2EF2E0DF2ECE0CDF1CB70162587D4F0C
:1035D000AD010FC0FA01E20FF31FA00FB11FA20F40
:1035E000B31F1C968C91848388819981019699835D
:1035F000888328813981F601A081B181FB01808116
:10360000918101968A1B9B0B2817390718F3F7C184
:1036100011968C93B70166587D4FDB011D921C9269
:10362000EB0110C0FA01EA0FFB1FEC0DFD1DA00F0E
:10363000B11FA557BF4F8C918283888199810196D4
:1036400099838883A881B981A430B10558F3FB011F
:1036500011821082E701C658DD4F10C0FA01EA0F4F
:10366000FB1FEC0DFD1DA00FB11FA957BF4F8C9183
:10367000868388819981019699838883A881B981FD
:10368000A430B10558F319821882E701C658DD4FFE
:10369000ECE7AE2EE2E0BE2EAE0CBF1C9701225826
:1036A0003D4F11C0FA01E60FF71FEC0DFD1DA00FF5
:1036B000B11FA60FB71F1C968C91828788819981B4
:1036C00001969983888368817981F501A081B18110
:1036D000F9018081918101968A1B9B0B68177907FC
:1036E00008F38DC111968C93C0E0D0E0D701A658A5
:1036F000BD4F06C0E9016F5F7F4F11967C936E93BB
:103700006D917C911197F801E60FF71FEF56FF4F6F
:1037100080819E012F5F3F4F833261F71D921C9283
:10372000E701C658DD4F10C0FA01EA0FFB1FEC0D90
:10373000FD1DA00FB11FAF56BF4F8C9182838881B2
:103740009981019699838883A881B981A217B307CB
:1037500058F319821882E701C658DD4F7CE7A72E7F
:1037600072E0B72EAE0CBF1C8EE792E0E80EF91E99
:1037700013C0FA01E60FF71FE20FF31FEC0DFD1D5A
:10378000A00FB11FA60FB71F1C968C918283888152
:10379000998101969983888368817981F501A08157
:1037A000B181F7018081918101968A1B9B0B68177B
:1037B0007907F8F224C18081813009F446C0813054
:1037C00020F0823009F01BC1AEC030E0FA01E20FF8
:1037D000F31F108201571F4FD8018D918D018183F6
:1037E0008C91005910408283F701E658FD4F1182F9
:1037F0001082EF016CE7C62E62E0D62ECE0CDF1CE5
:10380000EEE7F2E0EE0EFF1E11C0FA01E60FF71F21
:10381000E20FF31FA00FB11FA60FB71F1C968C91CC
:1038200083838881998101969983888368817981CE
:10383000F601A081B181F7018081918101968A1BF7
:103840009B0B6817790708F3DAC030E0FA01E20F42
:10385000F31F8083B70166587D4FDB011D921C92D8
:10386000EB0110C0FA01EA0FFB1FE20FF31FA00FDC
:10387000B11FA557BF4F8C91818388819981019693
:1038800099838883A881B981A430B10558F3FB01DD
:1038900011821082E701C658DD4F10C0FA01EA0F0D
:1038A000FB1FE20FF31FA00FB11FA957BF4F8C9151
:1038B000858388819981019699838883A881B981BC
:1038C000A430B10558F319821882E701C658DD4FBC
:1038D0009CE7C92E92E0D92ECE0CDF1C8EE792E039
:1038E000E80EF91E11C0FA01E60FF71FE20FF31FF1
:1038F000A00FB11FA60FB71F1C968C9181878881DE
:10390000998101969983888368817981F601A081E4
:10391000B181F7018081918101968A1B9B0B681709
:10392000790708F36CC0C22EDD24FA01EC0DFD1DF1
:103930008083C0E0D0E0D701A658BD4F06C0E901A2
:103940006F5F7F4F11967C936E936D917C91119771
:10395000F801E60FF71FEF56FF4F80819E012F5FA2
:103960003F4F833261F71D921C92E701C658DD4F2D
:1039700010C0FA01EA0FFB1FEC0DFD1DA00FB11FD7
:10398000AF56BF4F8C91818388819981019699832D
:103990008883A881B981A217B30758F319821882C6
:1039A000E701C658DD4F8CE7A82E82E0B82EAE0C9A
:1039B000BF1C8EE792E0E80EF91E13C0FA01E60F75
:1039C000F71FE20FF31FEC0DFD1DA00FB11FA60F97
:1039D000B71F1C968C918183888199810196998368
:1039E000888368817981F501A081B181F7018081A7
:1039F000918101968A1B9B0B68177907F8F2DF917A
:103A0000CF911F910F91FF90EF90DF90CF90BF90DB
:103A1000AF9008953F924F925F926F927F928F92F4
:103A20009F92AF92BF92CF92DF92EF92FF920F934D
:103A30001F93DF93CF9300D000D0CDB7DEB76B01DB
:103A40004A017901AA24A39410E022E730E0C20ED3
:103A5000D31E21E3422E9DE7792E83E3382EBEE567
:103A60006B2EADE55A2E30C1D401A60FB71F8C9135
:103A7000813111F090E04AC04C92F70180818F5F54
:103A800080838C917C926F5F7F4F9401260F371F4C
:103A90003C832B8361507040FB013296FA83E983AB
:103AA00020C0EB81FC81B180418349815A814F5F05
:103AB0005F4F3296FC83EB8329813A812E5F3F4F23
:103AC0003A832983F70180819801280F311DC901AC
:103AD000F60120813181820F931F48175907A8F4FE
:103AE0008B2DEB81FC8140818083F70180819801DF
:103AF000280F311DC901F60120813181820F931FEA
:103B000029813A812817390760F291E08C9183313D
:103B100009F04DC0992309F04AC03C92F701808119
:103B20008F5F80838C917C926F5F7F4F9401260F13
:103B3000371F3C832B8361507040FB013296FA8320
:103B4000E98320C0EB81FC81B180418349815A81A6
:103B50004F5F5F4F3296FC83EB8329813A812E5F62
:103B60003F4F3A832983F70180819801280F311D47
:103B7000C901F60120813181820F931F481759072F
:103B8000A8F48B2DEB81FC8140818083F70180813B
:103B90009801280F311DC901F60120813181820F62
:103BA000931F29813A812817390760F291E08C919F
:103BB0008E3709F04DC0992309F04AC06C92F70185
:103BC00080818F5F80838C917C926F5F7F4F9401A7
:103BD000260F371F3C832B8361507040FB013296C8
:103BE000FA83E98320C0EB81FC81B1804183498164
:103BF0005A814F5F5F4F3296FC83EB8329813A8174
:103C00002E5F3F4F3A832983F70180819801280F67
:103C1000311DC901F60120813181820F931F4817A0
:103C20005907A8F48B2DEB81FC8140818083F7013B
:103C300080819801280F311DC901F6012081318151
:103C4000820F931F29813A812817390760F291E08A
:103C50002C912D37C1F59923B1F55C92F701808144
:103C60008F5F80838C912C936F5F7F4FF401E60F01
:103C7000F71F6F5F7F4F17C0B1804183AB014F5F6C
:103C80005F4F32966E5F7F4FD7018C919801280F5E
:103C9000311DC901D6012D913C91820F931F481708
:103CA000590788F48B2D40818083D7018C9198012E
:103CB000280F311DC901D6012D913C91820F931F10
:103CC00068177907C8F2A3946A2D70E0F701808124
:103CD0009801280F311DC901D6012D913C91820F09
:103CE000931F6817790708F4BFCE0F900F900F90BD
:103CF0000F90CF91DF911F910F91FF90EF90DF9088
:103D0000CF90BF90AF909F908F907F906F905F907B
:103D10004F903F900895DF92EF92FF920F931F9381
:103D2000CF93DF93890180E090E0F3E1DF2EEEE7AF
:103D3000EE2E31E1F32E37C02F5F3F4F9C919D3720
:103D400031F01196319624173507B0F32DC02417A2
:103D5000350750F5E9012196E60FF71F818183337E
:103D600061F0843318F4813369F405C08D3549F06E
:103D70008E3541F404C0FC9205C0DC9203C0EC9285
:103D800001C09C9341505040F901E00FF11FE60F34
:103D9000F71F02C0818180832F5F3F4F3196CE0194
:103DA00024173507B8F39C012417350738F4F901B7
:103DB000E00FF11FDB01AE0FBF1FC0CFDF91CF912E
:103DC0001F910F91FF90EF90DF900895EF92FF9277
:103DD0000F931F93CF93DF938C01EB017A01FC01CA
:103DE000E658FD4F2D5F3F4F3183208323503040F5
:103DF000A0E0B0E0AF010BC0FE01E60FF71F80812D
:103E0000A80FB11D6F5F7F4FFA0171836083FA01C4
:103E1000608171816E157F0578F3AF3FB10521F0A8
:103E2000AF3F11F081E008C008521E4FC20FD31FF0
:103E30008C81F801808380E0DF91CF911F910F91F9
:103E4000FF90EF900895EF92FF920F931F93CF93FF
:103E5000DF93EC01CA5BDD4FE8808DEEE80E24971E
:103E60008881C254D240813009F0C9C0CD5DDE4F97
:103E7000F880C352D140FA948E0106581D4FD801E4
:103E80001D921C92B8012F2D30E087E290E0289F10
:103E9000A001299F500D389F500D11244C0F5D1F1C
:103EA00011C0FA01EA0FFB1FE05AFF4FAC0FBD1F14
:103EB000A85BBD4F8C918083FB018081918101962D
:103EC00091838083FB01A081B181A230B10548F3C9
:103ED000D8011D921C92AE0146585D4F2F2D30E047
:103EE00087E290E0289FB001299F700D389F700DE8
:103EF00011246C0F7D1F11C0FB01EA0FFB1FEE594F
:103F0000FF4FAC0FBD1FA65BBD4F8C918083FA01A4
:103F100080819181019691838083FA01A081B18192
:103F2000A430B10548F311821082BE0166587D4F5E
:103F30002F2D30E087E290E0289FA001299F500DAF
:103F4000389F500D11244C0F5D1F12C0FA01EA0F6B
:103F5000FB1FEA59FF4FAC0FBD1FA25BBD4F8C91F9
:103F60008083DB018D919C91119701968D939C9399
:103F7000FB01A081B181A430B10540F387E290E05C
:103F8000289FF001299FF00D389FF00D1124EC0FB0
:103F9000FD1FEA57FF4FCE5ADD4F8881C255D240F0
:103FA0008083E658F040AE014A5B5D4FDA018D91A7
:103FB0009C910D9720F1DB011D921C929E012658C9
:103FC0003D4FBA01AF0111C0FA01EA0FFB1FE659DC
:103FD000FF4FAC0FBD1FAD5ABD4F8C918083F901CF
:103FE00080819181019691838083F901A081B181C3
:103FF000FB01808191810C97A817B90728F3CE5B4C
:10400000DD4F8881C254D2408250843008F047C1CD
:10401000CD5DDE4FF880C352D140FA948E01065830
:104020001D4FD8011D921C92B8012F2D30E087E260
:1040300090E0289FA001299F500D389F500D11241A
:104040004C0F5D1F11C0FA01EA0FFB1FE05AFF4F32
:10405000AC0FBD1FA85BBD4F8C918083FB0180819D
:104060009181019691838083FB01A081B181A2306F
:10407000B10548F3D8011D921C92AE0146585D4F20
:104080002F2D30E087E290E0289FB001299F700D2E
:10409000389F700D11246C0F7D1F11C0FB01EA0FBA
:1040A000FB1FEE59FF4FAC0FBD1FA65BBD4F8C91A0
:1040B0008083FA0180819181019691838083FA0146
:1040C000A081B181A430B10548F311821082AE0104
:1040D00046585D4F2F2D30E087E290E0289FB001D9
:1040E000299F700D389F700D11246C0F7D1F12C019
:1040F000FB01EA0FFB1FEA59FF4FAC0FBD1FA25B8C
:10410000BD4F8C918083DA018D919C91119701961E
:104110008D939C93FA01A081B181A430B10540F345
:1041200011821082AE0146585D4F0E2D10E02F2DEA
:1041300030E087E290E0289FB001299F700D389F02
:10414000700D11246C0F7D1F12C0FB01EA0FFB1FC5
:10415000E659FF4FAC0FBD1FAE5ABD4F8C91808307
:10416000DA018D919C91119701968D939C93FA01A0
:10417000A081B181A017B10740F311821082BE0166
:1041800066587D4F2F2D30E087E290E0289FA001F8
:10419000299F500D389F500D11244C0F5D1F14C0E6
:1041A000FA01EA0FFB1FE258FF4FAC0FBD1FA00F33
:1041B000B11FAD5ABD4F8C918083DB018D919C91D5
:1041C000119701968D939C93FB01A081B181A23040
:1041D000B10530F387E290E0289FD001299FB00D10
:1041E000389FB00D1124AC0FBD1FA058BF4FFE016A
:1041F000EE0DF11DEB5AFD4F81918D9380818C93D3
:10420000A158B040FB0111821082AE0146585D4FAB
:10421000BD0114C0FB01EA0FFB1FEE57FF4FAC0FAF
:10422000BD1FA00FB11FA95ABD4F8C918083DA0129
:104230008D919C91119701968D939C93FA01A08189
:10424000B181A230B10530F311821082BE016658EF
:104250007D4F87E290E0289FA001299F500D389F55
:10426000500D11244C0F5D1F14C0FA01EA0FFB1F03
:10427000EC57FF4FAC0FBD1FA00FB11FA75ABD4F8A
:104280008C918083DB018D919C91119701968D9388
:104290009C93FB01A081B181A230B10530F3DF9185
:1042A000CF911F910F91FF90EF900895CF92DF92E1
:1042B000EF92FF920F931F93CF93DF93EC016B016B
:1042C0007A01B901FC01E658FD4F0D5F1F4F1183C4
:1042D000008303501040A0E0B0E09F010BC0F60146
:1042E000E40FF51F8081A80FB11D4F5F5F4FF901EB
:1042F00051834083F901408151814617570778F374
:10430000AF3FB10519F0AF3F09F05AC0F601E00F19
:10431000F11F9581D70115968C911597981709F083
:104320004FC0968116968C91981709F049C09B0151
:10433000201B310B2930310529F48781882309F4AA
:1043400042C03EC087818823D9F5FE01E658FD4F63
:1043500011821082BF012950304012C0FE01E40FCB
:10436000F51FE85BFD4FD601A40FB51FA00FB11FCD
:1043700018968C9180834F5F5F4FFB015183408380
:10438000DB014D915C914217530740F3CA5BDD4F4F
:1043900039832883C654D240F70185818E3491F445
:1043A0008681843479F42230310530F0FE01ED5DF0
:1043B000FE4F80818F5F8083CE010E94231F02C049
:1043C00081E001C080E0DF91CF911F910F91FF90BC
:1043D000EF90DF90CF900895FC01E658FD4F1182D9
:1043E0001082DF010BC0FC01E20FF31FE857FD4F05
:1043F00010822F5F3F4F11963C932E932D913C914D
:1044000011972E31310578F30895109243111092CF
:10441000441110924711109249110895CF92DF92E2
:10442000EF92FF920F931F93CF93DF936C01FC01E8
:10443000E658FD4F118210828F01E62EFF24E7011E
:10444000CC0FDD1FCC0FDD1FCE0DDF1D1CC0EC0F10
:10445000FD1F3B96EE0FFF1FEC0DFD1D808191812E
:104460000E94C101D8018D919C911197FE01E80F26
:10447000F91F3B96EE0FFF1FEC0DFD1D1182108200
:1044800001968D939C93D801ED91FC91E530F10557
:10449000F0F28701000F111F0C0D1D1D075B1F4F50
:1044A000D801ED91FC9115AA16AA17AA10AECF015A
:1044B0000E94C101F80111821082F601ED5AFF4FEE
:1044C000808181508083DF91CF911F910F91FF9068
:1044D000EF90DF90CF900895AF92BF92CF92DF928E
:1044E000FF920F931F93CF93DF936C01FF2460E043
:1044F00070E08C0106581D4FD8016D937C93EB0141
:10450000AA96CC0FDD1FCC0DDD1D23C05F010894E2
:10451000A11CB11CA881B981A555BF4FBB96EE0F58
:10452000FF1FEC0DFD1D0190F081E02DE555FF4FC3
:104530002D913D914D915C9180819181A281B381BA
:1045400082179307A407B50754F4F394F801B182D6
:10455000A082D801ED91FC91E430F105B8F2B4E00D
:10456000FB1621F4F62E65E070E002C0F62EF394FF
:104570006F5F7F4F6530710508F4BECF0F2D10E0DF
:10458000065D1F4F000F111F0C0D1D1DF8018081CE
:1045900091810E94C101D8011D921C928F2DDF9143
:1045A000CF911F910F91FF90DF90CF90BF90AF9070
:1045B0000895AF92BF92CF92DF92FF920F931F9315
:1045C000CF93DF936C01FF2460E070E08C0106580C
:1045D0001D4FD8016D937C93EB01AA96CC0FDD1F84
:1045E000CC0DDD1D23C05F010894A11CB11CA88166
:1045F000B981A555BF4FBB96EE0FFF1FEC0DFD1DFA
:104600000190F081E02DE555FF4F2D913D914D91A9
:104610005C9180819181A281B381281739074A0773
:104620005B0754F4F394F801B182A082D801ED91B4
:10463000FC91E430F105B8F2B4E0FB1621F4F62E5B
:1046400065E070E002C0F62EF3946F5F7F4F653037
:10465000710508F4BECF0F2D10E0065D1F4F000F4F
:10466000111F0C0D1D1DF801808191810E94C10157
:10467000D8011D921C928F2DDF91CF911F910F9128
:10468000FF90DF90CF90BF90AF9008950F931F934E
:10469000CF93DF938C01FC01E658FD4F118210820D
:1046A000EF0116C0BA96EE0FFF1FE00FF11F8081D9
:1046B00091810E94C101888199818A96FC01EE0F47
:1046C000FF1FE00FF11F1182108289979983888361
:1046D000E881F981E530F10528F3DF91CF911F9151
:1046E0000F910895AF92BF92CF92DF92EF92FF9217
:1046F0000F931F93CF93DF93EC0109E4A02EB12C0D
:10470000A80EB91EEE24FF241AE7C12E12E0D12E06
:10471000C80ED91ED6011D921C928701000F111FD1
:10472000000F111F0E0D1F1D1CC0E00FF11F3B9647
:10473000EE0FFF1FEC0FFD1F808191810E94C101D0
:10474000F60180819181F801E80FF91F3B96EE0F89
:10475000FF1FEC0FFD1F118210820196D6018D9371
:104760009C93D601ED91FC91E530F105F0F2D50175
:10477000ED91FC9115AA16AA17AA10AECF010E94BE
:10478000C101F501119211925F010894E11CF11C25
:10479000F5E0EF16F10409F0BDCFCD5ADF4F1882D6
:1047A000C65ADD4F188222961882DF91CF911F9151
:1047B0000F91FF90EF90DF90CF90BF90AF90089552
:1047C000AF92BF92CF92DF92EF92FF920F931F931F
:1047D000CF93DF93EC01FC01E355FD4F108260E0C5
:1047E00070E01AE7A12E12E0B12EA80EB91E7F01CB
:1047F000D5016D937C938B01000F111F0C0F1D1FB2
:10480000075B1F4F28C0D8018D919C916F010894C0
:10481000C11CD11CF601EE0FFF1FEC0FFD1FE75B63
:10482000FF4F0190F081E02DDC01D5962D913D9157
:104830004D915C91D89785A996A9A7A9B0AD2817E5
:1048400039074A075B076CF4F70180818F5F80832B
:10485000D501CD92DC92D501ED91FC91E430F105CA
:1048600090F2F7018081843021F4608365E070E08C
:1048700004C0862F8F5FD7018C936F5F7F4F6530A9
:10488000710508F4B5CFFE01E658FD4F1182108284
:104890008F017DEAE72E72E0F72EEC0EFD1E2FC091
:1048A000F701808190E0FC01EE0FFF1FEE0FFF1F6C
:1048B000E80FF91FE20FF31F3B96EE0FFF1FEC0FFF
:1048C000FD1F808191810E94C101D7018C9190E0F0
:1048D000FC01EE0FFF1FEE0FFF1FE80FF91FD801BD
:1048E0008D919C911197E80FF91F3B96EE0FFF1FDA
:1048F000EC0FFD1F1182108201968D939C93F8019D
:10490000208131812530310558F2D701EC91F0E05A
:10491000EE0FFF1FEC0FFD1FE75BFF4F0190F081D3
:10492000E02D15AA16AA17AA10AEEC91F0E0EE0F32
:10493000FF1FEC0FFD1FE75BFF4F808191810E94FD
:10494000C101D701EC91F0E0EE0FFF1FEC0FFD1F4E
:10495000E75BFF4F11821082FE01ED5AFF4F80810D
:1049600081508083C155DD4F1882DF91CF911F9117
:104970000F91FF90EF90DF90CF90BF90AF90089590
:104980002F923F924F925F926F927F928F929F925F
:10499000AF92BF92CF92DF92EF92FF920F931F934D
:1049A000DF93CF93CDB7DEB760970FB6F894DEBF35
:1049B0000FBECDBF7C016B01FC01E658FD4F11829B
:1049C00010822FEA32E0E20EF31ED7018C9121E52E
:1049D0003DEFE20EF31E882311F1DF0110C0F90153
:1049E000EE0FFF1FEE0DFF1DE75BFF4F80819181F2
:1049F000892B59F02F5F3F4F11963C932E932D91A9
:104A00003C9111972530310550F34DEA52E0E40E08
:104A1000F51ED7012C93E3E5FDEFEE0EFF1E2AE70E
:104A200032E0E20EF31ED7011D921C92E8ECFFEF7C
:104A3000EE0EFF1ED7018C91EEEBFDEFEE0EFF1E8A
:104A4000813079F026E432E0E20EF31ED7018D9139
:104A50009C91EAEBFDEFEE0EFF1E0C9770F50C94A7
:104A6000BA3620E832E0E20EF31ED7018C91E0E87E
:104A7000FDEFEE0EFF1E882379F426E432E0E20E0D
:104A8000F31ED7018D919C91EAEBFDEFEE0EFF1E18
:104A9000059798F40C94BA36813079F426E432E024
:104AA000E20EF31ED7018D919C91EAEBFDEFEE0E25
:104AB000FF1E0B9710F40C94BA3600E010E0662449
:104AC000882477249924B70166587D4FE2E44E2E5E
:104AD000E2E05E2E4E0C5F1C51E8252E52E0352E92
:104AE0002E0C3F1C970120583D4F3E872D87DB0140
:104AF0001D921C92F801EE0FFF1FEE0DFF1DE75BEC
:104B0000FF4F0190F081E02D85A996A9A7A9B0AD2E
:104B1000181619061A061B060CF08CC3D2018C91CC
:104B2000813009F0D0C1AD85BE858C91882309F014
:104B3000E1C0D60114969C9114978081981709F0D2
:104B400079C3AA24BB2416968C91833219F431E0E0
:104B5000A32EB12C96012A0D3B1DD90116968C91DE
:104B6000DB011D921C928130A9F0813020F082304F
:104B700009F088C070C09389D90117968C91179756
:104B8000981709F07FC0948918968C91981709F0AE
:104B900079C07CC0FB0111821082A801440F551F0F
:104BA0004E0D5F1D475B5F4F17C0FA01A081B181B9
:104BB000A20FB31FF601E20FF31FEA0DFB1D1B96B8
:104BC0009C918781981719F0882483940BC02F5FDC
:104BD0003F4FDB012D933C93FB0120813181243039
:104BE000310518F3DB011D921C92A801440F551FDB
:104BF0004E0D5F1D475B5F4F14C0FA01A081B1816C
:104C0000A20FB31FF601E20FF31FEA0DFB1D1F9663
:104C10009C9183859817A1F52F5F3F4FDB012D9362
:104C20003C93FB01208131812430310530F325C0D4
:104C3000992787FD9095F601E40FF51FEA0DFB1DFE
:104C4000278130E082179307D9F44F5F5F4FFB0154
:104C50005183408307C0D801AA0FBB1FAE0DBF1DF3
:104C6000A75BBF4FFB0140815181ED91FC911197F2
:104C7000E40FF51F85898332D9F6882039F002C008
:104C800088248394F1E06F1609F0D4C2702E21E0DD
:104C9000A216B10479F4E02FF0E0EE0FFF1FEE0D45
:104CA000FF1DE75BFF4F0190F081E02DD6011596C7
:104CB0008C9182AFE72DF0E0EE0FFF1FEE0DFF1D90
:104CC000E75BFF4FA081B181DB968C91DB978F5F13
:104CD000DB968C930190F081E02DD60112962C91F9
:104CE000129783A994A9820F911D94AB83AB15965B
:104CF0009C90E3C0813009F09DC2D6011A969C9128
:104D00001A978081981709F095C2AA24BB241C9693
:104D10008C91833219F4B1E0AB2EB12C96012A0D9F
:104D20003B1DD9011C968C91DB011D921C92813098
:104D3000A9F0813020F0823009F088C070C09389DA
:104D4000D9011D968C911D97981709F07FC0948901
:104D50001E968C91981709F079C07CC0FB011182D6
:104D60001082A801440F551F4E0D5F1D475B5F4F1A
:104D700017C0FA01A081B181A20FB31FF601E20FA3
:104D8000F31FEA0DFB1D1B969C918585981719F062
:104D9000882483940BC02F5F3F4FDB012D933C93FE
:104DA000FB01208131812430310518F3DB011D9294
:104DB0001C92A801440F551F4E0D5F1D475B5F4FAE
:104DC00014C0FA01A081B181A20FB31FF601E20F56
:104DD000F31FEA0DFB1D1F969C9181899817A1F581
:104DE0002F5F3F4FDB012D933C93FB0120813181ED
:104DF0002430310530F325C0992787FD9095F601C1
:104E0000E40FF51FEA0DFB1D258530E0821793079F
:104E1000D9F44F5F5F4FFB015183408307C0D80136
:104E2000AA0FBB1FAE0DBF1DA75BBF4FFB0140818B
:104E30005181ED91FC911197E40FF51F8589833223
:104E4000D9F6882039F002C088248394F1E06F16E7
:104E500009F0F0C1702E21E0A216B10479F4E02F20
:104E6000F0E0EE0FFF1FEE0DFF1DE75BFF4F01901F
:104E7000F081E02DD6011B968C9182AFE72DF0E0FA
:104E8000EE0FFF1FEE0DFF1DE75BFF4FA081B1810D
:104E9000DB968C91DB978F5FDB968C930190F08192
:104EA000E02DD60118962C91189783A994A9820F0A
:104EB000911D94AB83AB1B969C909A94B4E0B9156A
:104EC00008F0B4C1F8C68250843008F0B3C1D101F3
:104ED0008C91882309F0D2C0D6011B969C911B9718
:104EE0008081981709F0A6C1AA24BB241D968C9135
:104EF000833219F431E0A32EB12C96012A0D3B1D0B
:104F0000D9011D968C91DB011D921C928130A9F074
:104F1000813020F0823009F088C070C09389D901B7
:104F20001E968C911E97981709F07FC094891F9642
:104F30008C91981709F079C07CC0FB011182108216
:104F4000A801440F551F4E0D5F1D475B5F4F17C0F3
:104F5000FA01A081B181A20FB31FF601E20FF31F86
:104F6000EA0DFB1D1B969C918685981719F08824E5
:104F700083940BC02F5F3F4FDB012D933C93FB01CC
:104F8000208131812430310518F3DB011D921C9200
:104F9000A801440F551F4E0D5F1D475B5F4F14C0A6
:104FA000FA01A081B181A20FB31FF601E20FF31F36
:104FB000EA0DFB1D1F969C9182899817A1F52F5F22
:104FC0003F4FDB012D933C93FB0120813181243045
:104FD000310530F325C0992787FD9095F601E40F40
:104FE000F51FEA0DFB1D268530E082179307D9F4E3
:104FF0004F5F5F4FFB015183408307C0D801AA0F69
:10500000BB1FAE0DBF1DA75BBF4FFB014081518190
:10501000ED91FC911197E40FF51F85898332D9F644
:10502000882039F002C088248394F1E06F1609F0DB
:1050300001C1702E21E0A216B10479F4E02FF0E056
:10504000EE0FFF1FEE0DFF1DE75BFF4F0190F0819C
:10505000E02DD6011C968C9182AFE72DF0E0EE0F8B
:10506000FF1FEE0DFF1DE75BFF4F0190F081E02D6C
:1050700083AD8F5F83AFF6019484D3C0823009F093
:10508000D9C0D60151969C9151978081981709F00B
:10509000D1C0AA24BB2453968C91833219F4B1E079
:1050A000AB2EB12C96012A0D3B1DD90153968C9144
:1050B000DB011D921C928130A9F0813020F08230FA
:1050C00009F088C070C09389D90154968C91549787
:1050D000981709F07FC0948955968C91981709F01C
:1050E00079C07BC0FB0111821082A801440F551FBB
:1050F0004E0D5F1D475B5F4F17C0FA01A081B18164
:10510000A20FB31FF601E20FF31FEA0DFB1D1B9662
:105110009C918489981719F0882483940BC02F5F81
:105120003F4FDB012D933C93FB01208131812430E3
:10513000310518F3DB011D921C92A801440F551F85
:105140004E0D5F1D475B5F4F14C0FA01A081B18116
:10515000A20FB31FF601E20FF31FEA0DFB1D1F960E
:105160009C91808D9817A1F52F5F3F4FDB012D9308
:105170003C93FB01208131812430310530F325C07F
:10518000992787FD9095F601E40FF51FEA0DFB1DA9
:10519000248930E082179307D9F44F5F5F4FFB01FA
:1051A0005183408307C0D801AA0FBB1FAE0DBF1D9E
:1051B000A75BBF4FFB0140815181ED91FC9111979D
:1051C000E40FF51F85898332D9F6882031F002C0BB
:1051D00088248394F1E06F1669F5702E21E0A21601
:1051E000B10479F4E02FF0E0EE0FFF1FEE0DFF1D8C
:1051F000E75BFF4F0190F081E02DD60152968C9134
:1052000082AFE72DF0E0EE0FFF1FEE0DFF1DE75B15
:10521000FF4F0190F081E02D83AD8F5F83AFF601EA
:1052200092889A94F4E0F91508F445C505E010E079
:10523000662463940F5F1F4F0530110508F457CCA7
:105240002AE732E0E20EF31ED7011D921C92E6E837
:10525000FDEFEE0EFF1E662009F015C6870103550F
:105260001D4FD8017C90EFEAF2E0EE0EFF1E81E0C8
:10527000D7018C93E4EAFDEFEE0EFF1ED7018C916F
:10528000EDEAFFEFEE0EFF1E853028F0C7010E9409
:10529000E023D8017C90F701ED5AFF4F80818F5FAA
:1052A0008083A72CBB2481E090E06EE370E00E9435
:1052B000FB00FC012501440C551C4E0C5F1C29E42D
:1052C00030E0420E531ED2018D939C93009709F457
:1052D000F8C522E432E0E20EF31ED7018C912EEBEA
:1052E0003DEFE20EF31E813009F084C240E852E047
:1052F000E40EF51ED7018C9120E83DEFE20EF31E7F
:10530000882309F022C112A6D201ED91FC91D601A9
:1053100014968C918083F201008111810E94D20643
:10532000D801D5966D937D938D939C93D897F70173
:10533000E658FD4F118210829F01A20111C0FA01AF
:10534000608171816A0F7B1FAC0DBD1D8C91DB01EB
:1053500019968C93F90180819181019691838083C4
:10536000F901A081B181A230B10548F340E050E0DD
:10537000D60116968C91833211F441E050E0D501AC
:10538000AA0FBB1FAE0DBF1DA75BBF4F2D913C9158
:105390001197B601640F751FFB018681F90181A782
:1053A000970126583D4FF901118210820D911C91F1
:1053B0001197F80181A5813089F0813020F0823089
:1053C00009F089C063C0FB018781F801838BED91EF
:1053D000FC91DB0118968C91848B7DC0F9011182C0
:1053E00010824901BD0114C0FB01008111810A0F27
:1053F0001B1FAC0DBD1DA40FB51F17968C91D801B6
:105400001B968C93F4018081918101969183808316
:10541000F401A081B181A430B10530F3D9011D920E
:105420001C92970126583D4FB501660F771F6E0DF0
:105430007F1D675B7F4F14C0FB01008111810A0F44
:105440001B1FAC0DBD1DA40FB51F1B968C91D80161
:105450001F968C93F90180819181019691838083BD
:10546000F901A081B181A430B10530F334C0ED91D0
:10547000FC911197E80FF91F258BFB018081918129
:10548000019691838083459710F00CC0B901FB0110
:1054900080819181F601E80FF91FE40FF51F278144
:1054A000233229F7F501EE0FFF1FEE0DFF1DE75B1D
:1054B000FF4F0190F081E02D2AE732E0E20EF31E6B
:1054C000D7018D919C9126E83DEFE20EF31EE80F87
:1054D000F91F83E2858B4130510571F4F501EE0F20
:1054E000FF1FEE0DFF1DE75BFF4F0190F081E02DE8
:1054F000D60115968C9182AFD501AA0FBB1FAE0DB8
:10550000BF1DA75BBF4FED91FC91119791E093AF49
:10551000F60195809A94F4E0F91508F4CCC32D9126
:105520003C911197F6018281F90183AB14AAF6012F
:105530008381F90182ABED91FC9182A98150823087
:1055400010F493A7A0C413A69EC4813009F09BC495
:1055500082A7D201ED91FC91D6011A968C9180839D
:10556000F201008111810E94D206D801D5966D9377
:105570007D938D939C93D897A70146585D4FFA0170
:10558000118210829A01B20111C0FB0100811181C8
:105590000A0F1B1FAC0DBD1D8C91D80115968C9365
:1055A000F90180819181019691838083F901A08125
:1055B000B181A430B10548F3DA011D921C92970124
:1055C00026583D4FA501440F551F4E0D5F1D475BEB
:1055D0005F4F12C0FA01608171816A0F7B1FAC0DB1
:1055E000BD1D14968C91DB0111968C93F90180817D
:1055F0009181019691838083F901A081B181A430CA
:10560000B10540F360E070E0D6011C968C918332C6
:1056100011F461E070E0D501AA0FBB1FAE0DBF1DF4
:10562000A75BBF4F2D913C911197A601460F571FC5
:10563000FA018485F90181A7970126583D4FF901A8
:10564000118210820D911C911197F80181A5813072
:1056500089F0813020F0823009F089C063C0FA01FE
:105660008585F801838BED91FC91DA011E968C9172
:10567000848B7DC0F901118210824901AD0114C0F3
:10568000FA01008111810A0F1B1FAC0DBD1DA60F71
:10569000B71F1D968C91D8011B968C93F4018081C5
:1056A0009181019691838083F401A081B181A4301E
:1056B000B10530F3D9011D921C92970126583D4F38
:1056C000A501440F551F4E0D5F1D475B5F4F14C072
:1056D000FA01008111810A0F1B1FAC0DBD1DA60F21
:1056E000B71F51968C91D8011F968C93F901808138
:1056F0009181019691838083F901A081B181A430C9
:10570000B10530F334C0ED91FC911197E80FF91F0A
:10571000258BFA0180819181019691838083459741
:1057200010F00CC0A901FA0180819181F601E80F07
:10573000F91FE60FF71F2585233229F7F501EE0F34
:10574000FF1FEE0DFF1DE75BFF4F0190F081E02D85
:105750002AE732E0E20EF31ED7018D919C9126E8F4
:105760003DEFE20EF31EE80FF91F83E2858BD501B2
:10577000AA0FBB1FAE0DBF1DA75BBF4F2D913C9164
:105780001197F6018085F90183AB14AAF601818592
:10579000F90182ABED91FC9182A98150823018F41D
:1057A00081E083A701C013A66130710571F4F50192
:1057B000EE0FFF1FEE0DFF1DE75BFF4F0190F08125
:1057C000E02DD6011B968C9182AFAA0CBB1CAE0CAF
:1057D000BF1CE9E4F0E0AE0EBF1ED501ED91FC91D7
:1057E00081E083AFF60193849A94F4E0F91508F010
:1057F0004AC361C28250843008F045C321E832E0D8
:10580000E20EF31ED7018C912FE73DEFE20EF31E5F
:10581000882309F066C1D6011B968C918083F20122
:10582000008111810E94D206D801D5966D937D9397
:105830008D939C93D89740E050E0F60185858332A4
:1058400011F441E050E0D501AA0FBB1FAE0DBF1D02
:10585000A75BBF4F2D913C911197B601640F751F47
:10586000FB018585F90181A7970126583D4FF90174
:10587000118210820D911C911197F80181A5813040
:1058800089F0813020F0823009F089C063C0FB01CB
:105890008685F801838BED91FC91DB011F968C913D
:1058A000848B7DC0F901118210824901BD0114C0B1
:1058B000FB01008111810A0F1B1FAC0DBD1DA40F40
:1058C000B51F1E968C91D8011B968C93F401808194
:1058D0009181019691838083F401A081B181A430EC
:1058E000B10530F3D9011D921C92970126583D4F06
:1058F000B501660F771F6E0D7F1D675B7F4F14C06C
:10590000FB01008111810A0F1B1FAC0DBD1DA40FEF
:10591000B51F52968C91D8011F968C93F901808106
:105920009181019691838083F901A081B181A43096
:10593000B10530F334C0ED91FC911197E80FF91FD8
:10594000258BFB018081918101969183808345970E
:1059500010F00CC0B901FB0180819181F601E80FC4
:10596000F91FE40FF51F2685233229F7F501EE0F05
:10597000FF1FEE0DFF1DE75BFF4F0190F081E02D53
:105980002AE732E0E20EF31ED7018D919C9126E8C2
:105990003DEFE20EF31EE80FF91F83E2858B4130E5
:1059A000510571F4F501EE0FFF1FEE0DFF1DE75BD2
:1059B000FF4F0190F081E02DD6011C968C9182AFB3
:1059C000D501AA0FBB1FAE0DBF1DA75BBF4FED9149
:1059D000FC91119781E083AFF60194849A94F4E0EE
:1059E000F91508F468C1970126583D4FF901118255
:1059F00010828901AD0111C0FA01608171816A0FC5
:105A00007B1FAC0DBD1D8C91DB0115968C93F801AD
:105A100080819181019691838083F801A081B18179
:105A2000A430B10548F3D9011D921C929701265864
:105A30003D4FA501440F551F4E0D5F1D475B5F4F46
:105A400012C0FA01608171816A0F7B1FAC0DBD1D10
:105A500014968C91DB0111968C93F90180819181D0
:105A6000019691838083F901A081B181A430B105B1
:105A700040F311821082970126583D4FA501440F33
:105A8000551FD701A40FB51FA75BBF4F11C06D9164
:105A90007C911197680F791F8C0D9D1DFC018085ED
:105AA000FB018187F9018081918101969183808337
:105AB000F901808191818230910548F3D701A40FCB
:105AC000B51FA75BBF4FED91FC91119713A62D91C8
:105AD0003C911197F6018285F90182ABED91FC9121
